@ba11 ; Affinity 
@bb02 ; MemBank 
@bc03 ; Command 
:020000020900F3
:1000000087C0FFCFFFC7FFCFFFC7FFCFFFC7FFCF1F
:10001000FFC7FFCFFFC7FFCFFFC7FFCFFFC7FFCF90
:10002000FFC7FFCFFFC7FFCFFFC7FFCFFFC7FFCF80
:10003000FFC7FFCFFFC7FFCFFFC7FFCFFFC7FFCF70
:10004000FFC7FFCFFFC7FFCFFFC7FFCFFFC7FFCF60
:10005000FFC7FFCFFFC7FFCFFFC7FFCFFFC7FFCF50
:10006000FFC7FFCFFFC7FFCFFFC7FFCFFFC7FFCF40
:10007000FFC7FFCFFFC7FFCFFFC7FFCFFFC7FFCF30
:10008000FFC7FFCFFFC7FFCFFFC7FFCFFFC7FFCF20
:10009000FFC7FFCFFFC7FFCFFFC7FFCFFFC7FFCF10
:1000A000FFC7FFCFFFC7FFCFFFC7FFCFFFC7FFCF00
:1000B000FFC7FFCFFFC7FFCFFFC7FFCFFFC7FFCFF0
:1000C000FFC7FFCFFFC7FFCFFFC7FFCFFFC7FFCFE0
:1000D000FFC7FFCFFFC7FFCFFFC7FFCFFFC7FFCFD0
:1000E000FFC7FFCFFFC7FFCFFFC7FFCFFFC7FFCFC0
:1000F000FFC7FFCFFFC7FFCFFFC7FFCFFFC7FFCFB0
:1001000001001BC1010000002CAC1E66AF86D5F9B2
:10011000A895F8942224EFB3E0930A68EFE1FAE699
:10012000EDBFFEBFECE046D4E8EDF3E0E4BFF093B2
:10013000600000C000C0E0916300E1FDFCCFE8ED8D
:10014000F1E0E4BFF09362002FD4E0E0FAE6C0E013
:10015000D6E121922197E9F7E8E0E0931604E093D5
:100160001304E0931704E0931504E0931404E0E013
:10017000F8E02682A0E6B0E0A087B187A0E0A583E2
:10018000A3E0A783069803980798059804980E980B
:100190000B98E8E020923304E0933504E0933404B4
:1001A000E0E6F8E02682A0E6B0E0A087B187A0E014
:1001B000A583A3E0A783A2ECA6832B982598239A76
:1001C000249AE0E0FBE02082218224862586AFEF9E
:1001D000A683FED38ED3D6D3A895E8EDE4BFE5E0A1
:1001E000E09300016FD4AB98A39AB1C0F2C494C558
:1001F000E9C49DC5A0C4F1C40AC513C526C553C52D
:1002000075C5B9C0B8C0B7C0B6C0B5C00C940800B9
:100210000C9409000C940A000C940B000C940C0034
:100220000C940D000C940E000C940F000C94100014
:100230000C9411000C9412000C9413000C941400F4
:100240000C9415000C9416000C9417000C941800D4
:100250000C9419000C941A000C941B000C941C00B4
:100260000C941D000C941E000C941F000C94200094
:100270000C9421000C9422000C9423000C94240074
:100280000C9425000C9426000C9427000C94280054
:100290000C9429000C942A000C942B000C942C0034
:1002A0000C942D000C942E000C942F000C94300014
:1002B0000C9431000C9432000C9433000C943400F4
:1002C0000C9435000C9436000C9437000C943800D4
:1002D0000C9439000C943A000C943B000C943C00B4
:1002E0000C943D0020920078209219782092327868
:1002F00020924B782092647820927D782092007929
:10030000209219792092327920924B792092647947
:1003100020927D792092007A2092197A2092327A66
:1003200020924B7A2092647A20927D7A2092007BF0
:100330002092197B2092327B20924B7B2092647B0F
:1003400020927D7B0895EBEF33943E2208958BD16C
:1003500016C0E29ABBD1E8D185E692D310C0E29AEA
:10036000B5D1E5D18EE78CD30AC0E29AAFD1E2D104
:1003700083E286D304C0AAD1D1D18EE200C0069810
:10038000209206081ED362D3EFE1FAE6EDBFFEBF6E
:1003900014D307D0BDD1D1D1D7D1E5D197D177D161
:1003A000EEC1E1999FDFE79BCEDFE2999ED1ECB3EE
:1003B000E973ECBB00C0B7D2B2D22DD0CC24E60199
:1003C000D50187E165D0F0936F6C87E161D0F09340
:1003D0006F6C87E15DD0F0936F6C87E159D0F0933B
:1003E0006F6C87E155D0F0936F6C8FE751D0FD2D86
:1003F000E1E0E081E7FD06D0E69B07D0E8E0E0938E
:10040000A7040895E69AE79A0895E1E0DE26EBEF67
:10041000B394BE2237C0A895209206082092000B04
:10042000E0E0F0E0E0930A0BF0930B0B20920C0B52
:1004300020920D0BEFEFE093060BEAECE093060839
:1004400087E0C0E7DCE61599FECFE3E0E093000B20
:10045000039AE8E0E093A704E0E0FFE800900408D6
:1004600007FEFCCF009001081090000802FC71CF3D
:100470001992E125E0818A958AF7E0936F6C2092CA
:1004800006080895E0E7FCE6CCE0D8E687E019C26C
:10049000EAECE09306089D91E6999E7F219690FDF7
:1004A000069AE0E0FFE80D901599FECF90FD0092CE
:1004B00002080D9090FD009202080090040807FECB
:1004C000FCCF009001081090000802FC42CF199266
:1004D000E125E0818A9589F362F7F0916F6CFE2B3C
:1004E00006982092060808950C94660C0C94610CF2
:1004F0000C946A0C9FD0E8E7FCE687E1F7DF87C041
:1005000099D0E8E7FCE68DE0F1DFECE0F8E683E087
:10051000EDDF83E0E9DF6FC08DD0D32DCEE780E83B
:10052000E0E0F9E6E3DF02C085D000C088D082D0E9
:10053000F6018FE0DBDFD32DCEE7AFE7B0E072DE70
:10054000F32DEC2D3F96A193B193C193D19353C05A
:10055000E60188E1CDDF09F4089501CFE601A2E1CB
:10056000B0E060DEF601739671C0DD2DCEE7AFE737
:10057000B0E058DEF6013F9669C0E0916C6CE21184
:10058000E150E0936C6CE211F6CEE601E985F09162
:10059000676CEF23FA95F093676CE211ECCE86C09E
:1005A000E601E985F091666CF211EF13E4CE08954F
:1005B0000895E0916D6CE0FFDECE0895E0916D6CE2
:1005C000E0FD04C08091686C8211D5CE08951EDED6
:1005D000A991B9910D010128AE17BF07021051F47E
:1005E00017DEA991B9910D010128AE17BF070210BE
:1005F00009F40895C0CED32DCC2DA2E1B0E012DED7
:10060000F32DEC2D7396A193B193C193D193D32D78
:10061000CC2D87E16DDFE9930895DF93CF93C82F49
:100620000E94890CEF91FF91A193B193C193D19353
:10063000EF010895CC2DCA9504C0C4E602C0CDE7F1
:1006400000C0D32D888181608993089501900A129A
:1006500086CE01900B1283CE01900C1280CE0190B9
:100660000D127DCE0895E3E0E093216AE0E0FCE71F
:100670006F01E0E0F8E75F01FAE73F2E20926D6C32
:100680002092696CE4E0ECBBC5D01DD00FC0E799A7
:100690000895FD2DE2E0808180FD01D00895E09174
:1006A0006C6CE211EA95E0936C6C0895E09148015E
:1006B000FFE0F491F093676C20926C6C0895EFE08A
:1006C000E0936C6C08952092686C0895F32DE0E03F
:1006D0002082F32DE9E12082E2E32082EBE4208214
:1006E000E4E62082EDE720820895F8E7BF2EFAE7DE
:1006F0003F2EF8CDE4E1F9E62192E033E9F70895E1
:100700002092480120924901E1E0E09343010895DD
:10071000E0E8F9E6CAC0E4E8F9E6C7C0E8E8F9E6C7
:10072000C4C0E0E9F9E6C1C0ECE8F9E6BEC0E4E91E
:10073000F9E6BBC0E8E9F9E6B8C0E0916F6C209239
:100740006F6CE2110CCE0895E7990895DD2DC5E098
:10075000E881F0916E6CF395E0936E6CEF1709F4FD
:100760000895E29A02CEDD2DC0E0EC85E093216A87
:10077000E799CAC2EB85E77FFBE00C94BB0C1ED067
:10078000E7DE37C0E0910068F0910168C3E301D073
:1007900015C0DD2DCC2E888199819F3F49F4803092
:1007A00051F08F3F51F00090696C801521F005C029
:1007B0008E179F0711F40F900F900895CAE1DD2D59
:1007C000CC2E80E090E0E0E0F9E6099011908029DD
:1007D00001249029E830C9F7803011F09211CBCD77
:1007E000E0E009F0E1E0E0936D6C0895E601EA8154
:1007F00002C0E601E885E03120F4F0E0EA50F74F6E
:100800000994B9CD2092666C2092626CECB3E260E0
:10081000ECBB089501D037C0E0E0F9E60E941A0968
:10082000EF010E940609E993F9930E940809E993F0
:10083000F9930E94730CE993F9930E94760CE99363
:10084000F9930E940A09E993F9930E940C09E9932C
:10085000F99382E0E2DE81E0E0DE83E0DEDE84E048
:10086000DCDE87E0DADE85E0D8DE86E0D6DEE0E1B9
:10087000F1E180E13BDEE8E1F0E0E993F993E0911A
:100880000A68E993089509D081E08993E8E0F9E6E0
:100890008CE02CDE299229920895C8E7DCE6E0E09E
:1008A000F9E688E023CE0C94400D80819181019679
:1008B0008083918328F4828193810196828393833C
:1008C0000895019009928A95E1F7089529928A95F1
:1008D000E9F70895E0E0FFE80990E025E0818A95D6
:1008E000D9F7EE230895E0E0F0E00895E0E0F0E0CD
:1008F0000895E2E4FCE60E943E09C2E2DAE60E94C4
:100900004009E2E2FCE60E943E09C2E2DAE60C940B
:100910004009E2E4FCE60E9442090C943209039883
:10092000179BFECF08951799FECF0895C0E0D8E633
:10093000A4E0B0E00EC0C0E0D8E6A8E0B0E014C08B
:10094000C0E0D8E680E0C2DF00C0EFEFE0930968C6
:10095000089568DCF001A095B095C095D095A0836E
:10096000B183C283D38308955DDCF0018083089551
:10097000E2E0F2E000C0EF23F0950090206A0F2241
:10098000E02904C0E0E002C0EFEF00C0E093206A7D
:1009900000C0E091206A0C941009EF23F0950090BC
:1009A000216A0F22E02906C0E0E004C0E5E502C0AC
:1009B000EFEF00C0E093216A00C0E091216A0C943F
:1009C0000E09B69904C0E5E5B59B0C943C0907C037
:1009D000442455240895AB980895AB9A0895E09166
:1009E0004408E7FF0895E0914008E093007E0895F1
:1009F0008F93892F0AD08F9108C08F93892F05D0AC
:100A00008F9100C002D08CE23BC001D003C08F9315
:100A1000829501C08F938F70805D8A3308F0895F63
:100A20002FD08F9108958AE02BD08DE029C00F013F
:100A3000451451F0F0914408F5FF06C0FFE7E52D9D
:100A4000F081F09342085394F0010895451459F051
:100A5000F0914408F5FFFACFFFE7E52DF081F09320
:100A600042085394F3CF0895C42DDFE7019000208E
:100A700029F00882C395C511F9CFCA954C2ED8CF5D
:100A80000F01F201FA95EF1719F0FFE78083439405
:100A9000CFCF8F938E2FF201FA95EF1719F0FFE762
:100AA000808343948F91089580934208089589919B
:100AB000A9DF9A95E1F70895899182118813089525
:100AC000DFDFFACFC8EDDAE9F7DF80910A689DDF52
:100AD000C8EEDAE9F1DFBACF0A0D1B5B34346D2EB4
:100AE0002E2E5B424C442D005D1B5B6D0A0D0000F9
:100AF000C8EFDAE9E1DFAACF0A0D1B5B34336D2EB4
:100B00002E2E5B5550445D1B5B6D0A0D0000C0E24C
:100B1000DBE9D2DFC0E0D8E690E1C9DF84DF96CF21
:100B20000A0D1B5B34326D2E2E2E5B4150505D1B27
:100B30005B6D202D20003DDD11DDC1DD82E6B3DEE1
:100B4000C0911A69D0911B69CF31C1F5D13CB1F583
:100B500003980698209206082B9828DF77DFE60195
:100B60008985809302688889998980930368909326
:100B700004688E859F858093006890930168ECE0FF
:100B8000F8E6C5E1D8E687E09CDE809102688395AF
:100B900080931668C5E1D8E687E09CDEE8830E9472
:100BA000960CE6018A8980FF0C940010E8EDE09332
:100BB0003400E5E8E09301100C940010ECB3E2601F
:100BC000ECBBD9CBF6DCCADC7ADD81E76CDEA4DCD9
:100BD000D6CB89E668DE0C94BF09F0DCE6012A96E4
:100BE000F6DCBCDC6CDD83E75EDEE601EE85E093DF
:100BF000626CE985E093666C83DDC7E0E2E4FCE6C5
:100C000041DBC091626CE2E2FCE63CDBB8CBD6DCB7
:100C1000E6012A96DCDCA2DC52DD85E744DEF2DD6B
:100C2000AECBC7DC9BDC4BDD82E73DDEF601A28567
:100C3000B385D32DCEE78585813808F09CCB0D9008
:100C400009928A95E1F770DC9ACBAADCB7DC86DCE6
:100C50008CDC35DD55DD87E726DEF6018285938560
:100C6000CCDEF6018585CEDE039806982092060834
:100C70002B9840DDA0E8B0E0DD2DCEE7E2E4FCE615
:100C800003DBF601C285D385E2E2FCE6DBDAE601AE
:100C9000AD85B0E0C2E4DCE6E2E2FCE6F9DAECB312
:100CA000E260ECBB6CCB7CDC89DC58DC08DD86E6E2
:100CB000FADDF60182859385A0DEA4DD1BDD0398B5
:100CC0000698209206082B98E2E2FCE6E7DAF601A5
:100CD000C285D385E2E2FCE6B5DAE6018D85DADA93
:100CE000DDDA9ADDECB3E260ECBB49CB61DCE60116
:100CF0002A966DDC33DCE3DC8DE6D5DDF6018185FB
:100D00008093686C0C94BF098DE2CDDDE8E0F8E0DB
:100D100032DE01DD0C94BF0951DCE6012A9657DC76
:100D20001DDC2BDC80E7BFDDAEDDEADB28CB46DC5B
:100D3000E6012A964CDC12DCC2DC82E5B4DDB0CAE6
:00000001FF
; 
; *** EOF 
