@ba11 ; Affinity 
@bb01 ; MemBank 
@bc03 ; Command 
:020000020A00F2
:10000000B5C0000081E07DC082E07BC083E079C0A4
:1000100084E077C085E075C086E073C087E071C07A
:1000200088E06FC089E06DC08AE06BC08BE069C07A
:100030008CE067C08DE065C08EE063C08FE061C07A
:1000400080E15FC081E15DC082E15BC083E159C0B6
:1000500084E157C085E155C086E153C087E151C0B6
:1000600056C0000089E14DC08AE14BC08BE149C018
:100070008CE147C08DE145C08EE143C08FE141C0B6
:1000800080E23FC081E23DC082E23BC083E239C0F2
:1000900084E237C085E235C086E233C087E231C0F2
:1000A00088E22FC089E22DC08AE22BC08BE229C0F2
:1000B0008CE227C08DE225C08EE223C08FE221C0F2
:1000C00080E31FC081E31DC082E31BC083E319C02E
:1000D00084E317C085E315C086E313C087E311C02E
:1000E00088E30FC089E30DC08AE30BC08BE309C02E
:1000F0008CE307C08DE305C08EE303C08FE301C02E
:1001000035C02B9820926608E82F0C9458173F01B1
:10011000E091826CF091836C3091100631933091B4
:1001200011063083E091846CF091856C31913093AD
:100130000C063191309308063191309301063191CC
:100140003093A00031913093826C31913093836C65
:10015000319130930B06319130930A06E093846C11
:10016000F093856CF30118953332941DA895F8949B
:100170002224E8EDE0933400E5E8E0930110EFE19C
:10018000FAE6EDBFFEBFE8EDE4BF20921001E0E02B
:10019000FAE6C0E9DFE021922197E9F7A091026831
:1001A000A03110F0EBE108C1E0EAF0E0A1E8A083A3
:1001B000E0E0F6E0A1E1A083A0E0A183A3E0A283B8
:1001C000A0E0A383A0E0A483A1E0A0930506A2E49D
:1001D000A0872C9A00D78DD091D095D0A8D0ACD044
:1001E000B0D096D09AD09ED01CD78FD6B6D7AB9A27
:1001F000A39A78944CC1E2C561C160C1EBC55EC1F0
:100200005DC15CC15BC15AC159C158C104C056C16E
:1002100055C154C153C180D454D483E7CDD58BE0AC
:100220008093AA6C81E08093AB6CE2E8F1EBCF9312
:10023000C2E0C0930A06C1E0C0930D06C191C0930D
:100240000006C191C0930206C191C0930306C191FB
:10025000C0930406C191C0930C06C191C0930806D7
:10026000C191C0930106C191C093A000C191C093F8
:10027000826CC191C093836CC191C0930B06C191F4
:10028000C0930A06E093846CF093856CCF916091E3
:10029000346A7091356AEDD56093B56C7093B66C25
:1002A0009091336A9093B46C90912F6A9093AC6C58
:1002B0009091316A9093AD6C9091296A9093AE6C55
:1002C00090912B6A9093AF6C90912D6A9093B06C43
:1002D0009091236A9093B16C9091256A9093B26C3F
:1002E0009091276A9093B36CB8D3ECC0A898A09A69
:1002F0000895A09808958898809A08958098089500
:100300004F98479A08954798089508950895089535
:10031000A99AA19A0895A1980895899A819A089511
:10032000819808954E9A469A089546980895AA98F5
:10033000A29A0895A29808958A98829A0895829818
:1003400008954D98459A0895459808950C9408008D
:100350000C9409000C940A000C940B000C940C00F3
:100360000C940D000C940E000C940F000C941000D3
:100370000C9411000C9412000C9413000C941400B3
:100380000C9415000C9416000C9417000C94180093
:100390000C9419000C941A000C941B000C941C0073
:1003A0000C941D000C941E000C941F000C94200053
:1003B0000C9421000C9422000C9423000C94240033
:1003C0000C9425000C9426000C9427000C94280013
:1003D0000C9429000C942A000C942B000C942C00F3
:1003E0000C942D000C942E000C942F000C943000D3
:1003F0000C9431000C9432000C9433000C943400B3
:100400000C9435000C9436000C9437000C94380092
:100410000C9439000C943A000C943B000C943C0072
:100420000C943D002092007020921970209232703E
:1004300020924B702092647020927D702092007107
:10044000209219712092327120924B712092647126
:1004500020927D7120920072209219722092327245
:1004600020924B722092647220927D7220920073CF
:10047000209219732092327320924B7320926473EE
:1004800020927D730895EBEF33943E2208959ED31E
:10049000ECB3EE7FECBB16C0E29AC9D3F6D385E687
:1004A00018D610C0E29AC3D3F3D38EE712D60AC08F
:1004B000E29ABDD3F0D383E20CD604C0B8D3DFD325
:1004C0008EE200C0EFE1FAE6EDBFFEBF0698209293
:1004D0000608209266089ED5E2D598D506D0C9D3E5
:1004E000DDD3E3D3F1D3A3D3FBC3E1999BDFE79B38
:1004F000CADFE299ABD3E099FDD1ECB3E973ECBB71
:10050000ECB3E160ECBB02D0B5D025C157D552D5D4
:100510003ED0CC24E601D501D092386AB092396A37
:1005200087E17AD0F093886C87E176D0F093886C7D
:1005300087E172D0F093886C87E16ED0F093886C7D
:1005400087E16AD0F093886C8FE766D0FD2DE1E0FB
:10055000E081E7FD13D0E69B14D060EA7EE30090D3
:100560000A0B061600900B0B07060090060B01FE07
:10057000B0F32B98E8E0E093A7040895E69AE79A91
:100580000895E1E0DE26EBEFB394BE220895A8952E
:1005900020920608209266082092000B20920A0BF7
:1005A00020920B0B20920C0B20920D0BEFEFE0939F
:1005B000060BEAECE0930608E2E4E0936608249A6E
:1005C0002B9A87E0CCE0D8E6A5E1B8E60D90159926
:1005D000FECFE3E0E093000B00926208039AE8E0AC
:1005E000E093A704E0E0FFE80D900092620800901D
:1005F000040807FEFCCF009001081090000802FCE0
:100600004BCF1992E125E0818A9589F36AF7E0934F
:10061000886C209206080895EAECE09306089D9104
:10062000E6999E7F219690FD069AE0E0FFE80D9006
:100630001599FECF90FD009202080D9090FD00925A
:1006400002080090040807FEFCCF009001081090FB
:10065000000802FC21CF109262081992E125E08186
:100660008A9579F352F7F091886CFE2B06982092C8
:1006700006080895E6990895DB2DC9E160EA74E45F
:10068000A0E0BBE487E12DD0DB2DC2E360EA70E59A
:10069000A0E0B7E587E125D0DB2DCBE460EA7CE57F
:1006A000A0E0B3E687E11DD0DB2DC4E660EA78E682
:1006B000A0E0BFE687E115D0DB2DCDE760EA74E767
:1006C000A0E6B3E98FE70DD0E69B47D1DCE6C9E8A9
:1006D00060EA78E9A0EDBEE987E103D020926608E0
:1006E000089500900A0B061600900B0B0706009069
:1006F000060B01FEB0F3BD01E8E0E093A704E2E8D9
:10070000E0936608DE01219600900A0B0616009021
:100710000B0B0706D0F40090640807FEF5CF00909D
:1007200061081090600802FC06C019928A9562F771
:1007300081E08C930AC000900A0B061600900B0B08
:1007400007060090060B01FEB0F320926608E8E071
:10075000E093A7040895E6990895E2E8E093660817
:10076000EAE4E093060864EF7EE9A4ECB4EAC0E0B2
:10077000D8E780E06DD064EF74EAA4ECBAEAC9E18E
:10078000D8E781E065D064EF7AEAA4ECB0EBC2E38D
:10079000D8E782E05DD064EF70EBA4ECB6EBCBE47D
:1007A000D8E783E055D064EF76EBA4ECBCEBC4E66D
:1007B000D8E784E04DD064EF7CEBA4ECB2ECCDE75D
:1007C000D8E785E045D064EF72ECA4ECB8ECC6E95C
:1007D000D8E786E03DD064EF78ECA4ECBEECCFEA3D
:1007E000D8E787E035D064EF7EECA4ECB4EDC8EC3C
:1007F000D8E788E02DD064EF74EDA4ECBAEDC1EE3B
:10080000D8E789E025D064EF7AEDA4ECB0EECAEF2A
:10081000D8E78AE01DD064EF70EEA4ECB6EEC3E139
:10082000D9E78BE015D064EF76EEA4ECBCEECCE219
:10083000D9E78CE00DD064EF7CEEA4ECB2EFC5E418
:10084000D9E78DE005D02092660820920608089529
:100850006894909102688913E8942196E8E7F9E793
:100860008191919100900A0B061600900B0B0706E0
:10087000C8F32EF4069A8093020890930208BD01F3
:1008800088E10090040805FEFCCF0090640807FE94
:1008900004C00090600809928A95019016F40092B5
:1008A0000208E03971F746F480E480930408009070
:1008B000040806FEFCCF069800900A0B061600906E
:1008C0000B0B070648F40090640807FEF5CF009074
:1008D000600809928A9581F700900A0B061600902D
:1008E0000B0B07060090060B01FEB0F3E8E0E09367
:1008F000A704089560EE7AEF00900A0B06160090A8
:100900000B0B07060090060B01FEB0F3E8E0E09346
:10091000A704249A2C982B9A60EC7CEF00900A0B89
:10092000061600900B0B07060090060B01FEB0F3B5
:10093000E8E0E093A704249A2C9A60EA7EEF009006
:100940000A0B061600900B0B07060090060B01FE23
:10095000B0F3E8E0E093A7040895C8E7D9E7E1E041
:10096000F8E724D047D022D045D020D043D01ED0A5
:1009700041D01CD03FD01AD03DD018D03BD0E4E0BD
:10098000F8E7AEE0808191810C01102819F4799686
:10099000AA95C1F780938D7990938E79C8E7D9E7AE
:1009A00087E1A4D2F5E5EF27E883089590812082BE
:1009B0006181218272812282799680E090FD81603E
:1009C00060FD826070FD846091FD886061FD8061E2
:1009D00071FD806292FD806462FD8068899380E091
:1009E00072FD816093FD826063FD846073FD8860A9
:1009F0008883089590812082618121827281228280
:100A00007996888190FD806160FD806270FD8064D0
:100A100091FD8068899380E061FD816071FD826055
:100A200092FD846062FD886072FD806193FD80624A
:100A300063FD806473FD8068899308950C94721738
:100A40000C946D170C947617E601E885E03120F4DC
:100A5000F0E0E550FF4E099431CD9FD0E2EAFCE68C
:100A600087E1EEDF87C099D0E2EAFCE68DE0E8DFBF
:100A7000ECE0F8E683E0E4DF83E0E0DF6FC08DD0F8
:100A8000D32DCEE780E8E0E0F9E6DADF02C085D0DA
:100A900000C088D082D0F6018FE0D2DFD32DCEE720
:100AA000AFE7B0E05FDCF32DEC2D3F96A193B1935F
:100AB000C193D19353C0E60188E1C4DF09F40895DE
:100AC000F1CCE601A2E1B0E04DDCF601739671C015
:100AD000DD2DCEE7AFE7B0E045DCF6013F9669C01B
:100AE000E0913A6AE211E150E0933A6AE211E6CC11
:100AF000E601E985F091366AEF23FA95F093366ABC
:100B0000E211DCCC84C0E601E985F0917F6CF21142
:100B1000EF13D4CC08950895E091866CE0FFCECC1D
:100B20000895E091866CE0FD04C08091376A8211DF
:100B3000C5CC08950BDCA991B9910D010128AE1720
:100B4000BF07021051F404DCA991B9910D010128ED
:100B5000AE17BF07021009F40895B0CCD32DCC2DE9
:100B6000A2E1B0E0FFDBF32DEC2D7396A193B193DE
:100B7000C193D193D32DCC2D87E164DFE993089500
:100B8000DF93CF93C82F0E949517EF91FF91A19308
:100B9000B193C193D193EF010895CC2DCA9504C0B0
:100BA000C4E602C0CDE700C0D32D8881816089935F
:100BB000089501900A1276CC01900B1273CC01902B
:100BC0000C1270CC01900D126DCC0895E3E0E0930F
:100BD000216AE0E0F4E76F01E0E0F0E75F01F2E7AF
:100BE0003F2E2092866CE4E0ECBBE0D01DD00FC01D
:100BF000E7990895FD2DE2E0808180FD01D0089500
:100C0000E0913A6AE211EA95E0933A6A0895E09138
:100C10004801FFE0F491F093366A20923A6A089511
:100C2000EFE0E0933A6A08952092376A0895F32D31
:100C3000E0E02082F32DE9E12082E2E32082EBE490
:100C40002082E4E62082EDE720820895F0E7BF2EBF
:100C5000F2E73F2EE7CBE4E1F9E62192E033E9F752
:100C600008952092480120924901E1E0E093430178
:100C70000895E0E8F9E625C1E4E8F9E622C1E8E8EC
:100C8000F9E61FC1E0E9F9E61CC1ECE8F9E619C193
:100C9000E4E9F9E616C1E8E9F9E613C1E091886CE8
:100CA0002092886CE211FECB0895E7990895DD2D1E
:100CB000C5E0E881F091876CF395E093876CEF17BE
:100CC00009F40895E29AF4CBDD2DC0E0ED85E093C0
:100CD000216AE79977C0EB85E77FF9E00C94E41788
:100CE00002D0E9DEB1CECAE1DD2DCC2E80E090E06D
:100CF000E0E0F9E609901190802901249029E8307C
:100D0000C9F7803011F09211D9CBE0E009F0E1E0B1
:100D1000E093866C089520927F6C20927B6CECB3FC
:100D2000E260ECBB089501D037C0E0E0F9E60E9434
:100D3000BA11EF010E94A611E993F9930E94A8113C
:100D4000E993F9930E947F17E993F9930E94821720
:100D5000E993F9930E94AA11E993F9930E94AC11C7
:100D6000E993F99382E00CDF81E00ADF83E008DF9A
:100D700084E006DF87E004DF85E002DF86E000DF55
:100D8000E0E1F1E180E15CDEE8E1F0E0E993F99394
:100D9000E0910A68E993089509D081E08993E8E039
:100DA000F9E68CE04DDE299229920895C2EADCE64C
:100DB000E0E0F9E688E044CE0C94691889E6FCDFAF
:100DC0000C9462128DE2F8DFE8E0F8E0FDD054DF29
:100DD0000C946212A6DEE6012A96ACDE72DE20DFFB
:100DE00082E5EADFFDCAE091826CF091836CEF2B23
:100DF0000895CF93C091826CC21106C0C091836CDC
:100E0000C21102C0CF9103C0CF9188940895CF93AF
:100E1000C2E0C0930A06C1E0C0930D06C191C09321
:100E20000006C191C0930206C191C0930306C1910F
:100E3000C0930406C191C0930C06C191C0930806EB
:100E4000C191C0930106C191C093A000C191C0930C
:100E5000826CC191C093836CC191C0930B06C19108
:100E6000C0930A06E093846CF093856CCF9108944C
:100E700008957695679576956795769567957695B5
:100E800067958091061190910711861B970B6091D1
:100E90000411709105114FD0C695B795C695B795B9
:100EA000C695B795C695B7957C2F6B2F0895ECE343
:100EB0000698F894AFE1BAE6ADBFBEBFA4D0A8953E
:100EC000FECF8081918101968083918328F4828175
:100ED00093810196828393830895019009928A9564
:100EE000E1F7089529928A95E9F70895E0E0FFE88F
:100EF0000990E025E0818A95D9F7EE230895E0E096
:100F0000F0E00895E0E0F0E00895EBE5FCE60E94F3
:100F1000DE11CBE3DAE60E94E011EBE3FCE60E948F
:100F2000DE11CBE3DAE60C94E011EBE5FCE60E947F
:100F3000E2110C94D211799FE001689FD001699F62
:100F4000B00DC11DD21D789FB00DC11DD21D0895D9
:100F500080E404C080E202C080E100C0C083D1838D
:100F60008283238224822582BDCF0DD007C00BD07F
:100F700003C009D0AA0FBB1FAA0FBB1FAA0FBB1F1C
:100F8000AA0FBB1F0895B381A081AB0FB181B21D21
:100F9000DC91CC93A481B581AD1BB209AC0FB21D1D
:100FA000A483B583C281D381D395DC1708F0DD27F4
:100FB000D38308950398179BFECF08951799FECF0A
:100FC0000895E2E0F2E000C0EF23F0950090206A7F
:100FD0000F22E02904C0E0E002C0EFEF00C0E09380
:100FE000206A00C0E091206A0C94B011EF23F095C4
:100FF0000090216A0F22E02906C0E0E004C0E5E588
:1010000002C0EFEF00C0E093216A00C0E091216AC6
:101010000C94AE11B69904C0E5E5B59B0C94DC11B7
:1010200007C0442455240895AB980895AB9A0895B9
:10103000E0914408E7FF0895E0914008E0930077CD
:1010400008958F93892F0AD08F9108C08F93892F8D
:1010500005D08F9100C002D08CE23BC001D003C00C
:101060008F93829501C08F938F70805D8A3308F0D3
:10107000895F2FD08F9108958AE02BD08DE029C011
:101080000F01451451F0F0914408F5FF06C0F6E752
:10109000E52DF081F09342085394F0010895451432
:1010A00059F0F0914408F5FFFACFF6E7E52DF0810D
:1010B000F09342085394F3CF0895C42DD6E70190DE
:1010C000002029F00882C395C511F9CFCA954C2E8E
:1010D000D8CF0F01F201FA95EF1719F0F6E78083E8
:1010E0004394CFCF8F938E2FF201FA95EF1719F01B
:1010F000F6E7808343948F9108958991ACDF9A95A8
:10110000E1F708958991821188130895E2DFFACFFB
:10111000C4E2D1EBF7DF80910A68A0DFC4E3D1EB32
:10112000F1DFBDCF0A0D1B5B34346D2E2E2E5B42DA
:101130004C442D005D1B5B6D0A0D0000C4E4D1EB37
:10114000E1DFADCF0A0D1B5B34336D2E2E2E5B55C8
:1011500050445D1B5B6D0A0D0000CCE6D1EBD2DF85
:10116000C0E0D8E690E1C9DF87DF99CF0A0D1B5BAD
:1011700034326D2E2E2E5B4150505D1B5B6D202D49
:1011800020001106000001420081806C0001014234
:101190000081346A000101050081226A0001010317
:1011A0000081246A000101010081266A0001010416
:1011B0000080286A0001010200802A6A0001010003
:1011C00000802C6A0001010600802E6A00010107E0
:1011D0000080306A0001010B0081326A0001004288
:1011E000008100000002FFFFFFFFFFFFFFFFFFFF86
:00000001FF
; 
; *** EOF 
