@ba11 ; Affinity 
@bb01 ; MemBank 
@bc03 ; Command 
:020000020A00F2
:10000000BAC0000081E084C082E082C083E080C08A
:1000100084E07EC085E07CC086E07AC087E078C05E
:1000200088E076C089E074C08AE072C08BE070C05E
:100030008CE06EC08DE06CC08EE06AC08FE068C05E
:1000400080E166C081E164C082E162C083E160C09A
:1000500084E15EC085E15CC086E15AC087E158C09A
:100060005DC0000089E154C08AE152C08BE150C0FC
:100070008CE14EC08DE14CC08EE14AC08FE148C09A
:1000800080E246C081E244C082E242C083E240C0D6
:1000900084E23EC085E23CC086E23AC087E238C0D6
:1000A00088E236C089E234C08AE232C08BE230C0D6
:1000B0008CE22EC08DE22CC08EE22AC08FE228C0D6
:1000C00080E326C081E324C082E322C083E320C012
:1000D00084E31EC085E31CC086E31AC087E318C012
:1000E00088E316C089E314C08AE312C08BE310C012
:1000F0008CE30EC08DE30CC08EE30AC08FE308C012
:1001000001001FC10201000054AC1E66D3DF8186CE
:100110002B9820926608E82F0C94EF173F01E0918E
:10012000896CF0918A6C30911006319330911106F0
:100130003083E0918B6CF0918C6C319130930C0694
:10014000319130930806319130930106319130930B
:10015000A00031913093896C319130938A6C319148
:1001600030930B06319130930A06E0938B6CF09339
:100170008C6CF3011895A895F8942224E8EDE0938F
:100180003400E5E8E0930110EFE1FAE6EDBFFEBFD1
:10019000E8EDE4BF20921001E0E0FAE6C0E9DFE01C
:1001A00021922197E9F7A0910268A03110F0EBE1CC
:1001B0009FC0E0EAF0E0A1E8A083E0E0F6E0A1E182
:1001C000A083A0E0A183ABE0A283A0E0A383A0E092
:1001D000A483A0E0A0930506A2E4A0872C9A92D75E
:1001E00024D028D02CD03FD043D047D02DD031D0F0
:1001F00035D00E94A8180E941C180E9444197894B7
:10020000E2C081C5F7C0F6C08AC5F4C0F3C0F2C031
:10021000F1C0F0C0EFC0EEC0EDC0ECC0EBC0EAC072
:10022000E9C000C6A898A09A0895A0980895889853
:10023000809A0895809808954F98479A089547980E
:100240000895089508950895A99AA19A0895A198E6
:100250000895899A819A0895819808954E9A469AA8
:10026000089546980895AA98A29A0895A298089584
:100270008A98829A0895829808954D98459A08958B
:10028000459808950C9408000C9409000C940A00F9
:100290000C940B000C940C000C940D000C940E00AC
:1002A0000C940F000C9410000C9411000C9412008C
:1002B0000C9413000C9414000C9415000C9416006C
:1002C0000C9417000C9418000C9419000C941A004C
:1002D0000C941B000C941C000C941D000C941E002C
:1002E0000C941F000C9420000C9421000C9422000C
:1002F0000C9423000C9424000C9425000C942600EC
:100300000C9427000C9428000C9429000C942A00CB
:100310000C942B000C942C000C942D000C942E00AB
:100320000C942F000C9430000C9431000C9432008B
:100330000C9433000C9434000C9435000C9436006B
:100340000C9437000C9438000C9439000C943A004B
:100350000C943B000C943C000C943D0020920070E7
:10036000209219702092327020924B70209264700B
:1003700020927D702092007120921971209232712A
:1003800020924B712092647120927D7120920072B4
:10039000209219722092327220924B7220926472D3
:1003A00020927D72209200732092197320923273F2
:1003B00020924B732092647320927D730895EBEF2B
:1003C00033943E2208957DD3ECB3EE7FECBB16C090
:1003D000E29AAAD3D7D385E613D710C0E29AA4D362
:1003E000D4D38EE70DD70AC0E29A9ED3D1D383E24D
:1003F00007D704C099D3C0D38EE200C0EFE1FAE67C
:10040000EDBFFEBF0698209206082092660899D696
:10041000DDD693D606D0AAD3BED3C4D3D2D384D349
:10042000DCC3E1999BDFE79BCADFE2998CD3E099BB
:10043000EED1ECB3E973ECBBECB3E160ECBB02D002
:10044000AFD019C152D64DD63BD0CC24E601D50150
:10045000D0923F6AB092406A87E174D0F0938F6C7B
:1004600087E170D0F0938F6C87E16CD0F0938F6C44
:1004700087E168D0F0938F6C87E164D0F0938F6C44
:100480008FE760D0FD2DE1E0E081E7FD10D0E69B35
:1004900011D060EA7EE300900A0B061600900B0B69
:1004A00007060090060B01FEB0F32B980895E69A1C
:1004B000E79A0895E1E0DE26EBEFB394BE220895BB
:1004C000A89520920608209266082092000B2092A0
:1004D0000A0B20920B0B20920C0B20920D0BEFEFCE
:1004E000E093060BEAECE0930608E2E4E09366088A
:1004F000249A2B9A87E0CCE0D8E6A5E1B8E60D90E7
:100500001599FECFE3E0E093000B00926208039A96
:10051000E0E0FFE80D90009262080090040807FEFA
:10052000FCCF009001081090000802FC51CF1992F6
:10053000E125E0818A9589F36AF7E0938F6C209238
:1005400006080895EAECE09306089D91E6999E7FDF
:10055000219690FD069AE0E0FFE80D901599FECFF8
:1005600090FD009202080D9090FD0092020800900C
:10057000040807FEFCCF009001081090000802FC60
:1005800027CF109262081992E125E0818A9579F3CC
:1005900052F7F0918F6CFE2B069820920608089572
:1005A000E6990895DB2DC9E160EA74E4A0E0BBE4BC
:1005B00087E12DD0DB2DC2E360EA70E5A0E0B7E56E
:1005C00087E125D0DB2DCBE460EA7CE5A0E0B3E653
:1005D00087E11DD0DB2DC4E660EA78E6A0E0BFE647
:1005E00087E115D0DB2DCDE760EA74E7A0E6B3E93B
:1005F0008FE70DD0E69B35D1DCE6C0E960EA78E90B
:10060000A0EDBEE987E103D020926608089500902E
:100610000A0B061600900B0B07060090060B01FE56
:10062000B0F3BD01E2E8E0936608DE012196009098
:100630000A0B061600900B0B0706D0F40090640816
:1006400007FEF5CF009061081090600802FC06C01C
:1006500019928A9562F781E08C930AC000900A0B88
:10066000061600900B0B07060090060B01FEB0F378
:10067000209266080895E6990895E2E8E0936608F6
:10068000EAE4E093060864EF7EE9A4ECB4EAC0E093
:10069000D8E780E06DD064EF74EAA4ECBAEAC9E16F
:1006A000D8E781E065D064EF7AEAA4ECB0EBC2E36E
:1006B000D8E782E05DD064EF70EBA4ECB6EBCBE45E
:1006C000D8E783E055D064EF76EBA4ECBCEBC4E64E
:1006D000D8E784E04DD064EF7CEBA4ECB2ECCDE73E
:1006E000D8E785E045D064EF72ECA4ECB8ECC6E93D
:1006F000D8E786E03DD064EF78ECA4ECBEECCFEA1E
:10070000D8E787E035D064EF7EECA4ECB4EDC8EC1C
:10071000D8E788E02DD064EF74EDA4ECBAEDC1EE1B
:10072000D8E789E025D064EF7AEDA4ECB0EECAEF0B
:10073000D8E78AE01DD064EF70EEA4ECB6EEC3E11A
:10074000D9E78BE015D064EF76EEA4ECBCEECCE2FA
:10075000D9E78CE00DD064EF7CEEA4ECB2EFC5E4F9
:10076000D9E78DE005D0209266082092060808950A
:100770006894909102688913E8942196E8E7F9E774
:100780008191919100900A0B061600900B0B0706C1
:10079000C8F32EF4069A8093020890930208BD01D4
:1007A00088E10090040805FEFCCF0090640807FE75
:1007B00004C00090600809928A95019016F4009296
:1007C0000208E03971F746F480E480930408009051
:1007D000040806FEFCCF069800900A0B061600904F
:1007E0000B0B070648F40090640807FEF5CF009055
:1007F000600809928A9581F700900A0B061600900E
:100800000B0B07060090060B01FEB0F3089560EE97
:100810007AEF00900A0B061600900B0B070600906B
:10082000060B01FEB0F3249A2C982B9A60EC7CEF17
:1008300000900A0B061600900B0B07060090060BA3
:1008400001FEB0F3249A2C9A60EA7EEF00900A0B26
:10085000061600900B0B07060090060B01FEB0F386
:100860000895C8E7D9E7E1E0F8E724D047D022D0DF
:1008700045D020D043D01ED041D01CD03FD01AD07C
:100880003DD018D03BD0E4E0F8E7AEE08081918124
:100890000C01102819F47996AA95C1F780938D79E7
:1008A00090938E79C8E7D9E787E1B7D3F5E5EF27CD
:1008B000E883089590812082618121827281228261
:1008C000799680E090FD816060FD826070FD8460BB
:1008D00091FD886061FD806171FD806292FD8064A0
:1008E00062FD8068899380E072FD816093FD826083
:1008F00063FD846073FD8860888308959081208201
:1009000061812182728122827996888190FD806145
:1009100060FD806270FD806491FD8068899380E055
:1009200061FD816071FD826092FD846062FD88607E
:1009300072FD806193FD806263FD806473FD806859
:10094000899308950C9409180C9404180C940D18AC
:100950009FD0E9EAFCE687E1F7DF87C099D0E9EAB2
:10096000FCE68DE0F1DFECE0F8E683E0EDDF83E02C
:10097000E9DF6FC08DD0D32DCEE780E8E0E0F9E667
:10098000E3DF02C085D000C088D082D0F6018FE0BE
:10099000DBDFD32DCEE7AFE7B0E080DCF32DEC2D2D
:1009A0003F96A193B193C193D19353C0E60188E1DF
:1009B000CDDF09F4089512CDE601A2E1B0E06EDCCE
:1009C000F601739671C0DD2DCEE7AFE7B0E066DCCF
:1009D000F6013F9669C0E091416AE211E150E0936F
:1009E000416AE21107CDE601E985F0913C6AEF2307
:1009F000FA95F0933C6AE211FDCC86C0E601E985E8
:100A0000F091866CF211EF13F5CC08950895E09102
:100A10008D6CE0FFEFCC0895E0918D6CE0FD04C09B
:100A200080913D6A8211E6CC08952CDCA991B991A0
:100A30000D010128AE17BF07021051F425DCA99162
:100A4000B9910D010128AE17BF07021009F40895EE
:100A5000D1CCD32DCC2DA2E1B0E020DCF32DEC2DB8
:100A60007396A193B193C193D193D32DCC2D87E1EC
:100A70006DDFE9930895DF93CF93C82F0E942C1860
:100A8000EF91FF91A193B193C193D193EF01089599
:100A9000CC2DCA9504C0C4E602C0CDE700C0D32D5A
:100AA000888181608993089501900A1297CC019002
:100AB0000B1294CC01900C1291CC01900D128ECCA3
:100AC0000895E3E0E093276AE0E0F4E76F01E0E0F7
:100AD000F0E75F01F2E73F2E20928D6C20923E6A94
:100AE000E4E0ECBB08D11DD00FC0E7990895FD2DBF
:100AF000E2E0808180FD01D00895E091416AE21139
:100B0000EA95E093416A0895E0914801FFE0F4918D
:100B1000F0933C6A2092416A0895EFE0E093416AC5
:100B2000089520923D6A0895F32DE0E02082F32D90
:100B3000E9E12082E2E32082EBE42082E4E6208205
:100B4000EDE720820895F0E7BF2EF2E73F2E06CCB6
:100B5000E4E1F9E62192E033E9F7089520924801B3
:100B600020924901E1E0E09343010895E0E8F9E6CD
:100B70003FC2E4E8F9E63CC2E8E8F9E639C2E0E958
:100B8000F9E636C2ECE8F9E633C2E4E9F9E630C248
:100B9000E8E9F9E62DC2E0918F6C20928F6CE211AA
:100BA0001DCC0895E7990895DD2DC5E0E881F09109
:100BB0008E6CF395E0938E6CEF1709F40895E29A2A
:100BC00013CCDD2DC0E0ED85E093276AE7999FC047
:100BD000EB85E77FF9E00C947B1802D0E7DE34C0A8
:100BE000E0910068F0910168C3E301D015C0DD2DEC
:100BF000CC2E888199819F3F49F4803051F08F3FFE
:100C000051F000903E6A801521F005C08E179F07B5
:100C100011F40F900F900895CAE1DD2DCC2E80E0E5
:100C200090E0E0E0F9E609901190802901249029F4
:100C3000E830C9F7803011F09211DCCBE0E009F028
:100C4000E1E0E0938D6C0895E601EA8102C0E601DF
:100C5000E885E13120F4F0E0EF5FFE4E0994CACB65
:100C60002092866C2092826CECB3E260ECBB08951B
:100C700001D037C0E0E0F9E60E945611EF010E9472
:100C80004211E993F9930E944411E993F9930E9468
:100C90001618E993F9930E941918E993F9930E94A1
:100CA0004611E993F9930E944811E993F99382E080
:100CB000E2DE81E0E0DE83E0DEDE84E0DCDE87E0B1
:100CC000DADE85E0D8DE86E0D6DEE0E1F1E180E143
:100CD0003BDEE8E1F0E0E993F993E0910A68E993FB
:100CE000089509D081E08993E8E0F9E68CE02CDEF4
:100CF000299229920895C9EADCE6E0E0F9E688E065
:100D000023CE0C94001989E6FCDF0C94FE118DE2D1
:100D1000F8DFE8E0F8E0EFD12CDF0C94FE117CDE88
:100D2000E6012A9682DE48DEF8DE82E5EADFF4CAD2
:100D30006EDE42DE83E7E5DF8BE08093B16CC2EBD1
:100D4000DCE68EE00E94091860913A6A70913B6A75
:100D50000E94D0176093B26C7093B36C6091236A59
:100D60007091246A6093B46C7093B56C6091256A3D
:100D70006093B66C9091356A9093AF6C9091376A9E
:100D80009093B06C90912F6A9093B16C9091316A6E
:100D90009093B26C9091336A9093B36C9091296A5E
:100DA0009093B46C90912B6A9093B56C90912D6A4E
:100DB0009093B66C9091396A9093B76CE0EBF2EB3C
:100DC000CF93C2E0C0930A06C1E0C0930D06C19163
:100DD000C0930006C191C0930206C191C09303065F
:100DE000C191C0930406C191C0930C06C191C093F8
:100DF0000806C191C0930106C191C093A000C191A2
:100E0000C093896CC191C0938A6CC191C0930B0649
:100E1000C191C0930A06E0938B6CF0938C6CCF91D8
:100E200097DDECCA83E76DDFC9EADCE688E10E9462
:100E3000091880E18093A96C60913A6A70913B6ACD
:100E40000E94D0176093AA6C7093AB6C6091236A78
:100E50007091246A6093AC6C7093AD6C6091256A5C
:100E60006093AE6C9091356A9093AF6C9091376AB5
:100E70009093B06C90912F6A9093B16C9091316A7D
:100E80009093B26C9091336A9093B36C9091296A6D
:100E90009093B46C90912B6A9093B56C90912D6A5D
:100EA0009093B66C9091396A9093B76CE0EBF2EB4B
:100EB000CF93C2E0C0930A06C1E0C0930D06C19172
:100EC000C0930006C191C0930206C191C09303066E
:100ED000C191C0930406C191C0930C06C191C09307
:100EE0000806C191C0930106C191C093A000C191B1
:100EF000C093896CC191C0938A6CC191C0930B0659
:100F0000C191C0930A06E0938B6CF0938C6CCF91E7
:100F10001FDD74CAE091896CF0918A6CEF2B089503
:100F2000CF93C091896CC21106C0C0918A6CC21166
:100F300002C0CF9103C0CF9188940895CF93C2E0AF
:100F4000C0930A06C1E0C0930D06C191C09300068C
:100F5000C191C0930206C191C0930306C191C09391
:100F60000406C191C0930C06C191C0930806C191BB
:100F7000C0930106C191C093A000C191C093896C38
:100F8000C191C0938A6CC191C0930B06C191C0936B
:100F90000A06E0938B6CF0938C6CCF9108940895C3
:100FA0007695679576956795769567957695679525
:100FB0008091061190910711861B970B6091041187
:100FC000709105114FD0C695B795C695B795C69542
:100FD000B795C695B7957C2F6B2F0895ECE30698CF
:100FE000F894AFE1BAE6ADBFBEBFA4D0A895FECFDE
:100FF0008081918101968083918328F482819381FD
:101000000196828393830895019009928A95E1F76E
:10101000089529928A95E9F70895E0E0FFE809909C
:10102000E025E0818A95D9F7EE230895E0E0F0E02D
:101030000895E0E0F0E00895E2E6FCE60E947A110F
:10104000C2E4DAE60E947C11E2E4FCE60E947A1136
:10105000C2E4DAE60C947C11E2E6FCE60E947E1122
:101060000C946E11799FE001689FD001699FB00DCB
:10107000C11DD21D789FB00DC11DD21D089580E401
:1010800004C080E202C080E100C0C083D1838283BB
:10109000238224822582BDCF0DD007C00BD003C090
:1010A00009D0AA0FBB1FAA0FBB1FAA0FBB1FAA0FF5
:1010B000BB1F0895B381A081AB0FB181B21DDC913C
:1010C000CC93A481B581AD1BB209AC0FB21DA48332
:1010D000B583C281D381D395DC1708F0DD27D38394
:1010E00008950398179BFECF08951799FECF089592
:1010F000E2E0F2E000C0EF23F0950090266A0F22B4
:10110000E02904C0E0E002C0EFEF00C0E093266AEF
:1011100000C0E091266A0C944C11EF23F0950090EA
:10112000276A0F22E02906C0E0E004C0E5E502C01E
:10113000EFEF00C0E093276A00C0E091276A0C94AB
:101140004A11B69904C0E5E5B59B0C94781107C027
:10115000442455240895AB980895AB9A0895E091DE
:101160004408E7FF0895E0914008E0930077089570
:101170008F93892F0AD08F9108C08F93892F05D024
:101180008F9100C002D08CE23BC001D003C08F938E
:10119000829501C08F938F70805D8A3308F0895FDC
:1011A0002FD08F9108958AE02BD08DE029C00F01B8
:1011B000451451F0F0914408F5FF06C0F6E7E52D1F
:1011C000F081F09342085394F0010895451459F0CA
:1011D000F0914408F5FFFACFF6E7E52DF081F093A2
:1011E00042085394F3CF0895C42DD6E70190002010
:1011F00029F00882C395C511F9CFCA954C2ED8CFD6
:101200000F01F201FA95EF1719F0F6E78083439486
:10121000CFCF8F938E2FF201FA95EF1719F0F6E7E3
:10122000808343948F9108958991ACDF9A95E1F77B
:1012300008958991821188130895E2DFFACFC2E5FB
:10124000D2EBF7DF80910A68A0DFC2E6D2EBF1DFD4
:10125000BDCF0A0D1B5B34346D2E2E2E5B424C44E9
:101260002D005D1B5B6D0A0D0000C2E7D2EBE1DFD4
:10127000ADCF0A0D1B5B34336D2E2E2E5B555044C3
:101280005D1B5B6D0A0D0000CAE9D2EBD2DFC0E046
:10129000D8E690E1C9DF87DF99CF0A0D1B5B3432B6
:1012A0006D2E2E2E5B4150505D1B5B6D202D20005E
:1012B000110B000001420081876C00010142008196
:1012C0003A6A000101050081286A000101030081DA
:1012D0002A6A0001010100812C6A000101040080DA
:1012E0002E6A000101020080306A000101000080C6
:1012F000326A000101060080346A000101070080A3
:10130000366A0001010B0081386A00010042008149
:1013100000000002FFFFFFFFFFFFFFFFFFFFFFFFD7
:00000001FF
; 
; *** EOF 
