:020000020000FC
:100000000C943E000C9415020C9415020C94AB0158
:10001000CFC1D1C1D3C1D5C105C1F7C0BBC5BCC516
:10002000D5C1D2C1DAC183C388C30DC410C499C37A
:10003000A3C3AAC33DC416C424C48DC382C386C34C
:10004000B6C4E9C1DDC1E2C126C32BC336C337C381
:100050003FC34BC362C366C371C4EFC0F5C068C47D
:100060009BC3A5C381C3C1C4CAC4DFC4E9C6ECC66F
:10007000EEC6F0C6F5C603C713C797C1F89422248D
:10008000E7E2F9E6EDBFFEBFE8EDF7E0E4BFF0938D
:100090000001A895E8EDF4E2E4BFF0936800E09178
:1000A0004000E0934000EFBBE8EDE4BF2092011078
:1000B0002BBE609A619AE8EDF0E6E4BFF093100180
:1000C000E0914101E211FCCF2092480120924901C8
:1000D000E1E0E0934001E1E5E093E205E3E0E09355
:1000E000E305EFE0E093E405E8E0E093B304E09398
:1000F000B604E093B504E093B404E0E4F8E02682AB
:10010000A0ECB0E0A087B187A0E8A583A3E0A78317
:10011000A2ECA683A698A598AB9AAC9AA39AA49AA7
:10012000E8E0E0935204E0935304E0935104E09339
:100130005004E0E2F8E02682A0ECB0E0A087B187AE
:100140002582A6E0A783A2ECA683439841984A9A09
:10015000489A429A409AA898A998A198A898A09AD3
:10016000899881988898809A4E9846984F98479A8F
:10017000A09A809A479A449A46D051D0F89902C0E2
:10018000F99B06C0E0E0F0E6AFEFA193F836E8F3A4
:10019000E0E0F8E62192F038E8F3E0914801F091D0
:1001A0004901F230D0F3E2E030D035D0B69B0BC03D
:1001B00000900090009429F0C2E0E9D495D409F4AD
:1001C00047C1E1E028C1E0E0FAE0208221822282FA
:1001D0002382AFE0A083E0E0FBE020822182AEE654
:1001E000B1E0A487B587A1E0A583A5E0A0839CD258
:1001F000A1D2789406D00FD0C2E6C0D4E0E0D0D12E
:1002000042C0E0E002C0EFEF00C0E0FF4C9AE0FD2A
:100210004C98F0E009C0E0E005C0E5E503C0EFEF71
:1002200001C0E32FF1E000C00090240805FEFCCFE0
:10023000E0932208F09323080895E8EDF1E0E093BD
:100240003400F0934100FFCFA895E8EDE4BFE1E072
:10025000E0930001FFCFB4D3FDD29681A8D30C92D6
:10026000A5D3B3C3ADD3A2D39781A1D3F3D20990C1
:100270001C9001100C9211960197C9F797D3A5D342
:1002800008957A660EA0E7E2F9E6EDBFFEBF2227E9
:1002900034E0EAE285D1C091006979D426D12034D6
:1002A00091F324FD10C026FFF9CFE2E3F3E00590BF
:1002B00000160590159019F4F0010995E4CFE63584
:1002C000B1F720FFEBCF003449F7622F6370613044
:1002D00029F72062F7D07A3B21F46131A1F6206141
:1002E000DDCF24FFD0CF7B3B39F4693060F6C62FD9
:1002F0004ED4246031E0D2CF7C3B21F422FFC3CF27
:100300007DD1CCCF7F3B51F6603011F40AD0BBCF0A
:10031000613009F40AD0B7CF68E070C1C02F2ED485
:10032000B2CF6CD3EEED3CD1AECF7ED3ECEE38D174
:10033000AACF531E02520502648C01618E01628EA7
:1003400001638E01658E01668E01738E01758E01CB
:100350006C8E01004301EFB64F01E0914408E7FFC6
:1003600013C0E72DE619E03C23FF08F0AB9AE091BB
:100370004108E2FD82C0F0E7E72D709040087192DD
:100380007E2EF401EFBE1895E091060BE093060B6C
:10039000761411F442104A943A9422F4332EE0E198
:1003A000E0934704F401EFBE1895E0E0F0E0089513
:1003B000EDE0F0E00895E0E1F1EC0895E1E0F0E037
:1003C0000895E0E1F1EC089503D0E6C301D0E2C363
:1003D000AFE0B0E0C0E1D1E10895F8DFA193B193BF
:1003E000C193D193F1DFA193B193C193D1930895B8
:1003F000DFEF672C94D06710FBCF2197D9F70895D2
:1004000017D048F00895EBE001C0EAE00BDF20923E
:10041000480120924901A895F894AB98F0E208D0E1
:10042000E8F700DFF0E404D0E8F7EBDEF4DE05CF18
:100430000090480100904901F0150895C0910069AD
:10044000A6D352D3C9F4CF3111F0CB31A9F4D0DF08
:10045000209245082092000A2092000B2092050B62
:1004600020924801209249018ED1FE01E050F048CF
:10047000F695E795F894099411CFF89420924608E0
:10048000AB98E8E0C2DEE5E5CDDEEFEFA89500C071
:1004900000C000C0E211EA95B59BF8CFE211F5CF9C
:1004A000C4CF8E2F9927BEDEE8E0AFDEE4EA78D035
:1004B000F0910900E2E0F4FDEAE0A7DE32E0672C0B
:1004C0002ED0F6CF04D0702F02D0602F089507D021
:1004D00002950F9304D00F900029F00E089505D0D7
:1004E0000F7D075308F4095D089519D0421002C02A
:1004F00025FDC9CE7614C9F3F0E7E62D008163949B
:10050000206442102F7B26FD2F7EFBE04F2E21FF23
:1005100023950A3011F00D3009F42C7F00C00F0133
:10052000A89523FD06C0E72DE619E03218F4AB9834
:1005300001C0AB9AF0010895019101D003C00F935F
:10054000029501C00F930F70005D0A3308F0095F38
:100550001BD00F910895092FF0DF082FEECF0AE08E
:1005600013D00DE011C0E0E0F1E1E6DFE5DFE4DF0C
:100570000EE20AD029DFCE01EEDFCD01ECDF26DF6F
:10058000CE01E9DFCD01E7CFD8E1C9DF0090440813
:1005900005FEFBCF2197B699C1F700934208089555
:1005A000E0930169FDE0E091016905910EBBE093E4
:1005B0000169002391F012F0E7DFF4CFF1990ED03A
:1005C000F29911D0F399C7DFF499CDDFF69913D0E2
:1005D000F599ADD2F099C3DFE5CF0895C591E093C9
:1005E0000169D5D28BC200900069109031690AE28E
:1005F00010100895C9CF09E0C7DF82C26CBBE09933
:10060000BAD2E19907D0E3999AD2E69921CFE79936
:10061000FACE089517D1B7D0C0930269D093036979
:1006200064DF20FFFDCF0A33D9F751DF502EF02EC3
:1006300049DFC0910269D0910369C60FD71F47DF18
:10064000003031F00130F1F0023069F0E4E029CF00
:10065000FDD008945208A0F02AD1E5E0C8F037DFB9
:10066000802F0ED1F6CF2EDF660F771F660F771F14
:10067000660F771F660F771F609302697093036997
:1006800003D0CECF5AD100C022DFF21411F0E6E041
:1006900008CF0895BBD0CFE4D3E049D04EC0A89591
:1006A0000895C487D5870895C93008F0C9E0DCE013
:1006B000CD9FE001C059D5470895F6DFADC0C08396
:1006C000D183C48BD58BCA0FDB1FC283D38308951C
:1006D000A68FA895C28FD38FD5D020F0C28DD38D91
:1006E0002197B9F70895AA27BB27C48FD58FEC8F20
:1006F000FD8FA895A28FB38FC48DD58DFE01B2D08A
:1007000048F0C48DD58DFE01BCD020F0A28DB38DF4
:10071000119779F708958FEF79D0868FA895B2D089
:10072000E8F70CC1FADFFFCF71D0CAEED4E0C68B78
:10073000D78B08956BD0C3EFD4E0C08FD18F0895CD
:1007400065D081D00ED018D025C260D07CD009D021
:1007500013D022C25BD0F5DF02841384C015D1050B
:100760000895C489D5890895C489D58900801180E8
:10077000C019D10908954AD0A281B381048815888F
:10078000A019B109089542D0C081D18108953ED009
:10079000C281D38108953AD000801180C281D38173
:1007A000C019D10909F021960024021C08957CDFAC
:1007B000FE0100801180C281D381F2CF0C2ECCE7E4
:1007C000DAE81884101419F02C96CC3DD1F708956E
:1007D000DCE0CD9FE001C059D5470895CE01CCE7BC
:1007E000DAE8088019808015910530F00A801B80B6
:1007F0008015910531F028F02C96CC3D91F70894A6
:10080000089588940895A0E0B1E70895E8E2F9E634
:100810000895FCDFA487B5878CE0099001928A9542
:10082000E1F73C97C481D5812197C095D095C28BC3
:10083000D38BC081D181C687D787C08BD18B278EC0
:1008400002D07EC0E3DFC081D18101C0DFDFC48B75
:10085000D58B089584819581A685B785C485D58576
:100860000895D4DF25D038F0C489D58950D020F040
:100870008991C48BD58B089521968FEF0894F9CF79
:10088000C5DF868F15D090F053D0C481D5812197D4
:10089000A489B589CA23DB231196A48BB58BA485C3
:1008A000B585CA0FDB1F868D888388940895AEDFD7
:1008B00004881080011405881180010440F0048828
:1008C0001280011405881380010419F010F00894B7
:1008D0000895889408959ADFC489D589A685B78537
:1008E000CA17DB0730F0A089B189CA17DB0719F0F6
:1008F00010F0089408958894089588DFC685D785F8
:1009000006D0A78DAE7F08F4A160A78F0895C034EC
:10091000B0E1DB0748F0D63148F0D03628F0D038C7
:1009200028F0D03908F002C00894089588940895FA
:10093000D3DF10F403D004D0089568DF2BD026C095
:10094000C489D58902881388C021D121C687D78759
:1009500084819581C80FD91F2197C08BD18BCEDFA1
:1009600040F0A685B785C485D5850D90099201977D
:10097000E1F70895078C00FC07C06CDF09901D901B
:10098000011419F40197D1F718940895F3DF09F0D1
:1009900069CC0895078C00FC08955CDF09901D90D8
:1009A0001020011058CC0197C9F7089590E080916C
:1009B00002108370E1F78DE984BF909300100895D1
:1009C00006880F9207880F920895008C0F92018C71
:1009D0000F9208952860AB9AFF93F4E6A0DDFA9594
:1009E000E9F7FF910895277F9ACDC2E066DE80E1A6
:1009F00080930110B0DE20920110089507DFEF010F
:100A0000DFDF2BD069F09BE0D2DFE895CFDF92E00B
:100A1000CEDF00801180E8953296F03AD1F7C6DF3C
:100A2000FE01D3CF02D010CCF1DEFF93EF93C8DFED
:100A3000DCDF81F412D071F094919F3F59F09BE07C
:100A4000B6DF0082B3DF92E0B2DF04900192F03AA9
:100A5000E1F7ACDFEF91FF91B8CFE0E0F0E99491DE
:100A60008191891711F4F03AD1F7E0E0F0E90895A7
:100A70000000FFFF010000002D00000000A0FFFFAC
:100A80000002080266011FC10090FF9F00020802D9
:100A900062021BC10014FF150100181265031EC17C
:100AA00080109F102000080263041CC100111F1158
:100AB00001000000730500005010581001000000F4
:100AC000750600000060FF670002000061071AC1A0
:100AD00040104F10010000006C08000000110011D0
:100AE000010000002D09000035DEA0930469B093D9
:100AF0000569C0930669D09307690895F5DF06C0BC
:100B0000E0E1E0930110F0DF20920110EEEC09F437
:100B1000E4ED0ED090910769809106691CDD9091FB
:100B200005698091046917DD02C0EEEC01C0EAEDB1
:100B3000FDE00591002311F027DDFBCF08950FDDC7
:100B400081DEF3DF63DE8489958900E1080F090FF8
:100B5000F02EE0E925DD85DE38F0082FF00EEDDC23
:100B600055DE04890F70B9F7E0DFF1940F2DE5DC55
:100B70009EDE40F7089566DECEDDDFCE05D0009123
:100B8000316900930069089519DE3DDE42CE20DE12
:100B90003ADE3FCEE89404C06894CA0FDB1F00C061
:100BA000EF93FF936FEF7FEFCB01FF27A8950EF038
:100BB00019900EF41A9008941794062E0F1E96950D
:100BC00087957795679500FE08C0EDEE9E27E8EBC8
:100BD0008E27E3E87E27E0E26E27169471F71197DF
:100BE00028F790958095709560950E01DB01EC01DA
:100BF0008623872389238095FF91EF910895FFFF36
:100D0000A1811B5B34316D2E2E2E5B524553455411
:100D10002D885DA11B5B34346D2E2E2E5B524F4D02
:100D20002E5254422E7077725D00A1814944205B9F
:100D3000905D814C3A208708523A201B5B33326D1C
:100D40004331315230303031A1533A208705553A82
:100D500020870681413A208707423A20C702433A5A
:100D6000208704453A208703463A20870181524F65
:100D70004D205B527C537C645D202D205B617C6246
:100D80007C637C657C667C6C7C737C755D3E20003E
:100D9000813A31301B5B39346DA81B5B39306D30C3
:100DA00030A0000081811B5B34356D2E2E2E5B45FB
:100DB00072726F722023885DA0202D203C627265C4
:100DC000616B3E20746F20726573756D65001B5BEF
:100DD00039306D001B5B33326D001B5B6D00A181F0
:100DE0001B5B34346D5B532D3E5D0000A1811B5BAA
:100DF00034346D5B3C2D525D0000FFFFFFFFFFFFB1
:100E0000ACAAA9A5A3A69C9A999593968E8D8BB111
:100E1000B2B4B874726C6A696563665C5A595553AA
:100E2000564E4D4B4771E8E4E2D1C9C5D8D4D2CA79
:100E3000C6CC78171B1D1E2E363A272B2D3539337D
:100E40001ED00ED01CD00CC00BD019D009C017D0AA
:100E500007D015C005D0E991EF73E081ED930895B7
:100E6000E991EF70F881FF0FEE1FFF0FEE1FFEE814
:100E7000E081ED93E991EF73E081ED930895FEE851
:100E8000E881E695E695E081ED93E991E370E295DE
:100E9000F881F07FF295EF2BFEE8E081ED93089565
:100EA000FEE8E881E081ED930895FFFFFFFFFFFF7B
:100F0000005EBCE2613FDD83C29C7E20A3FD1F41E9
:100F10009DC3217FFCA2401E5F01E3BD3E6082DCD9
:100F2000237D9FC1421CFEA0E1BF5D0380DE3C62C9
:100F3000BEE0025CDF81633D7C22C09E1D43A1FFB9
:100F40004618FAA427799BC584DA3866E5BB5907A9
:100F5000DB856739BAE406581947A5FB7826C49A99
:100F6000653BD987045AB8E6A7F91B45C6987A2489
:100F7000F8A6441A99C7257B3A6486D85B05E7B979
:100F80008CD2306EEDB3510F4E10F2AC2F7193CD69
:100F9000114FADF3702ECC92D38D6F31B2EC0E5059
:100FA000AFF1134DCE90722C6D33D18F0C52B0EE49
:100FB000326C8ED0530DEFB1F0AE4C1291CF2D7339
:100FC000CA947628ABF517490856B4EA6937D58B29
:100FD0005709EBB536688AD495CB2977F4AA481619
:100FE000E9B7550B88D6346A2B7597C94A14F6A809
:100FF000742AC896154BA9F7B6E80A54D7896B35F9
:1010000081C0FFCFFFC7FFCFFFC7FFCFFFC7FFCF15
:10101000FFC7FFCFFFC7FFCFFFC7FFCFFFC7FFCF80
:10102000FFC7FFCFFFC7FFCFFFC7FFCFFFC7FFCF70
:10103000FFC7FFCFFFC7FFCFFFC7FFCFFFC7FFCF60
:10104000FFC7FFCFFFC7FFCFFFC7FFCFFFC7FFCF50
:10105000FFC7FFCFFFC7FFCFFFC7FFCFFFC7FFCF40
:10106000FFC7FFCFFFC7FFCFFFC7FFCFFFC7FFCF30
:10107000FFC7FFCFFFC7FFCFFFC7FFCFFFC7FFCF20
:10108000FFC7FFCFFFC7FFCFFFC7FFCFFFC7FFCF10
:10109000FFC7FFCFFFC7FFCFFFC7FFCFFFC7FFCF00
:1010A000FFC7FFCFFFC7FFCFFFC7FFCFFFC7FFCFF0
:1010B000FFC7FFCFFFC7FFCFFFC7FFCFFFC7FFCFE0
:1010C000FFC7FFCFFFC7FFCFFFC7FFCFFFC7FFCFD0
:1010D000FFC7FFCFFFC7FFCFFFC7FFCFFFC7FFCFC0
:1010E000FFC7FFCFFFC7FFCFFFC7FFCFFFC7FFCFB0
:1010F000FFC7FFCFFFC7FFCFFFC7FFCFFFC7FFCFA0
:10110000F73AA6B4A895F8942224EFB3E0930A68BE
:10111000EFE1FAE6EDBFFEBFECE025D4E8EDF3E049
:10112000E4BFF093600000C000C0E0916300E1FD07
:10113000FCCFE8EDF1E0E4BFF09362000ED4E0E014
:10114000FAE6C0E0D6E121922197E9F7E8E0E093E2
:101150001604E0931304E0931704E0931504E0935E
:101160001404E0E0F8E02682A0E6B0E0A087B187B2
:10117000A0E0A583A3E0A7830698039807980598A5
:1011800004980E980B98E8E020923304E09335041D
:10119000E0933404E0E6F8E02682A0E6B0E0A08721
:1011A000B187A0E0A583A3E0A783A2ECA6832B9838
:1011B0002598239A249AE0E0FBE02082218224866D
:1011C0002586AFEFA683DDD36DD3B5D3A895E8ED23
:1011D000E4BFE5E0E09300014ED4AB98A39AB1C020
:1011E000D1C473C5C8C47CC57FC4D0C4E9C4F2C42B
:1011F00005C532C554C5B9C0B8C0B7C0B6C0B5C0C2
:101200000C9408000C9409000C940A000C940B0038
:101210000C940C000C940D000C940E000C940F0018
:101220000C9410000C9411000C9412000C941300F8
:101230000C9414000C9415000C9416000C941700D8
:101240000C9418000C9419000C941A000C941B00B8
:101250000C941C000C941D000C941E000C941F0098
:101260000C9420000C9421000C9422000C94230078
:101270000C9424000C9425000C9426000C94270058
:101280000C9428000C9429000C942A000C942B0038
:101290000C942C000C942D000C942E000C942F0018
:1012A0000C9430000C9431000C9432000C943300F8
:1012B0000C9434000C9435000C9436000C943700D8
:1012C0000C9438000C9439000C943A000C943B00B8
:1012D0000C943C000C943D002092007820921978E8
:1012E0002092327820924B782092647820927D78F8
:1012F00020920079209219792092327920924B79AC
:101300002092647920927D792092007A2092197A35
:101310002092327A20924B7A2092647A20927D7ABF
:101320002092007B2092197B2092327B20924B7B73
:101330002092647B20927D7B0895EBEF33943E22D4
:10134000089594D116C0E29AC2D1EFD185E671D347
:1013500010C0E29ABCD1ECD18EE76BD30AC0E29AFE
:10136000B6D1E9D183E265D304C0B1D1D8D18EE240
:1013700000C0069820920608FDD241D3EFE1FAE6BC
:10138000EDBFFEBFF3D207D0C4D1D8D1DED1ECD1AE
:101390009ED17ED1F5C1E1999FDFE79BCEDFE29937
:1013A000A5D1ECB3E973ECBB00C096D291D22DD09D
:1013B000CC24E601D50187E165D0F0936E6C87E11E
:1013C00061D0F0936E6C87E15DD0F0936E6C87E135
:1013D00059D0F0936E6C87E155D0F0936E6C8FE727
:1013E00051D0FD2DE1E0E081E7FD06D0E69B07D07E
:1013F000E8E0E093A7040895E69AE79A0895E1E00B
:10140000DE26EBEFB394BE2237C0A89520920608E3
:101410002092000BE0E0F0E0E0930A0BF0930B0B5E
:1014200020920C0B20920D0BEFEFE093060BEAECF1
:10143000E093060887E0CFE6DCE61599FECFE3E00F
:10144000E093000B039AE8E0E093A704E0E0FFE8F4
:101450000090040807FEFCCF0090010810900008DF
:1014600002FC71CF1992E125E0818A958AF7E09319
:101470006E6C209206080895EFE6FCE6CCE0D8E614
:1014800087E0F8C1EAECE09306089D91E6999E7F1B
:10149000219690FD069AE0E0FFE80D901599FECFA9
:1014A00090FD009202080D9090FD009202080090BD
:1014B000040807FEFCCF009001081090000802FC11
:1014C00042CF1992E125E0818A9589F362F7F09184
:1014D0006E6CFE2B06982092060808950C943F0C23
:1014E0000C943A0C0C94430CE601E885E03120F4AE
:1014F000F0E0E051F74F099438CF9FD0E7E7FCE6E2
:1015000087E1EEDF87C099D0E7E7FCE68DE0E8DF12
:10151000ECE0F8E683E0E4DF83E0E0DF6FC08DD04D
:10152000D32DCEE780E8E0E0F9E6DADF02C085D02F
:1015300000C088D082D0F6018FE0D2DFD32DCEE775
:10154000AFE7B0E069DEF32DEC2D3F96A193B193A8
:10155000C193D19353C0E60188E1C4DF09F4089533
:10156000F8CEE601A2E1B0E057DEF601739671C055
:10157000DD2DCEE7AFE7B0E04FDEF6013F9669C064
:10158000E0916B6CE211E150E0936B6CE211EDCEF7
:10159000E601E985F091676CEF23FA95F093676CAB
:1015A000E211E3CE84C0E601E985F091666CF211A8
:1015B000EF13DBCE08950895E0916C6CE0FFD5CE7B
:1015C0000895E0916C6CE0FD04C08091686C82111C
:1015D000CCCE089515DEA991B9910D010128AE1761
:1015E000BF07021051F40EDEA991B9910D01012837
:1015F000AE17BF07021009F40895B7CED32DCC2D36
:10160000A2E1B0E009DEF32DEC2D7396A193B19326
:10161000C193D193D32DCC2D87E164DFE993089555
:10162000DF93CF93C82F0E94620CEF91FF91A1939B
:10163000B193C193D193EF010895CC2DCA9504C005
:10164000C4E602C0CDE700C0D32D888181608993B4
:10165000089501900A127DCE01900B127ACE01906E
:101660000C1277CE01900D1274CE0895E3E0E09352
:10167000216AE0E0FCE76F01E0E0F8E75F01FAE7EC
:101680003F2E20926C6CE4E0ECBB9DD01DD00FC0CF
:10169000E7990895FD2DE2E0808180FD01D0089555
:1016A000E0916B6CE211EA95E0936B6C0895E09128
:1016B0004801FFE0F491F093676C20926B6C089501
:1016C000EFE0E0936B6C08952092686C0895F32D21
:1016D000E0E02082F32DE9E12082E2E32082EBE4E6
:1016E0002082E4E62082EDE720820895F8E7BF2E0D
:1016F000FAE73F2EF1CDE4E1F9E62192E033E9F794
:1017000008952092480120924901E1E0E0934301CD
:101710000895E0E8F9E6A2C0E4E8F9E69FC0E8E849
:10172000F9E69CC0E0E9F9E699C0ECE8F9E696C074
:10173000E4E9F9E693C0E8E9F9E690C0E0916E6C5F
:1017400020926E6CE21105CE0895E7990895DD2D83
:10175000C5E0E881F0916D6CF395E0936D6CEF1747
:1017600009F40895E29AFBCDDD2DC0E0EC85E0930D
:10177000216AE799A2C2EB85E77FFBE00C94940C09
:1017800002D0E9DEB1CECAE1DD2DCC2E80E090E0C2
:10179000E0E0F9E609901190802901249029E830D1
:1017A000C9F7803011F09211E0CDE0E009F0E1E0FE
:1017B000E0936C6C08952092666C2092626CECB39E
:1017C000E260ECBB089501D037C0E0E0F9E60E948A
:1017D0001409EF010E940009E993F9930E9402099C
:1017E000E993F9930E944C0CE993F9930E944F0CF2
:1017F000E993F9930E940409E993F9930E94060979
:10180000E993F99382E00CDF81E00ADF83E008DFEF
:1018100084E006DF87E004DF85E002DF86E000DFAA
:10182000E0E1F1E180E15CDEE8E1F0E0E993F993E9
:10183000E0910A68E993089509D081E08993E8E08E
:10184000F9E68CE04DDE299229920895C7E7DCE69F
:10185000E0E0F9E688E044CE0C94190D8081918196
:1018600001968083918328F48281938101968283FB
:1018700093830895019009928A95E1F7089529923A
:101880008A95E9F70895E0E0FFE80990E025E08116
:101890008A95D9F7EE230895E0E0F0E00895E0E0BE
:1018A000F0E00895E2E4FCE60E943809C2E2DAE6DC
:1018B0000E943A09E2E2FCE60E943809C2E2DAE656
:1018C0000C943A09E2E4FCE60E943C090C942C09D1
:1018D0000398179BFECF08951799FECF0895C0E097
:1018E000D8E6A4E0B0E00EC0C0E0D8E6A8E0B0E0E2
:1018F00014C0C0E0D8E680E0C2DF00C0EFEFE093A4
:101900000968089589DCF001A095B095C095D0953F
:10191000A083B183C283D38308957EDCF0018083EA
:101920000895E2E0F2E000C0EF23F0950090206A15
:101930000F22E02904C0E0E002C0EFEF00C0E09316
:10194000206A00C0E091206A0C940A09EF23F09508
:101950000090216A0F22E02906C0E0E004C0E5E51E
:1019600002C0EFEF00C0E093216A00C0E091216A5D
:101970000C940809B69904C0E5E5B59B0C943609AA
:1019800007C0442455240895AB980895AB9A089550
:10199000E0914408E7FF0895E0914008E093007E5D
:1019A00008958F93892F0AD08F9108C08F93892F24
:1019B00005D08F9100C002D08CE23BC001D003C0A3
:1019C0008F93829501C08F938F70805D8A3308F06A
:1019D000895F2FD08F9108958AE02BD08DE029C0A8
:1019E0000F01451451F0F0914408F5FF06C0FFE7E0
:1019F000E52DF081F09342085394F00108954514C9
:101A000059F0F0914408F5FFFACFFFE7E52DF0819A
:101A1000F09342085394F3CF0895C42DDFE701906B
:101A2000002029F00882C395C511F9CFCA954C2E24
:101A3000D8CF0F01F201FA95EF1719F0FFE7808375
:101A40004394CFCF8F938E2FF201FA95EF1719F0B1
:101A5000FFE7808343948F9108958093420808950F
:101A60008991A9DF9A95E1F70895899182118813E8
:101A70000895DFDFFACFCAE8DAE9F7DF80910A6874
:101A80009DDFCAE9DAE9F1DFBACF0A0D1B5B343416
:101A90006D2E2E2E5B424C442D005D1B5B6D0A0D9E
:101AA0000000CAEADAE9E1DFAACF0A0D1B5B343392
:101AB0006D2E2E2E5B5550445D1B5B6D0A0D000094
:101AC000C2EDDAE9D2DFC0E0D8E690E1C9DF84DF19
:101AD00096CF0A0D1B5B34326D2E2E2E5B4150507B
:101AE0005D1B5B6D202D200067DD3BDDE9DD82E6BF
:101AF000B3DEC0911A69D0911B69CF31C1F5D13CD9
:101B0000B1F503980698209206082B9828DF77DF16
:101B1000E6018985809302688889998980930368A2
:101B2000909304688E859F858093006890930168E8
:101B3000ECE0F8E6C5E1D8E687E09CDE809102683B
:101B4000839580931668C5E1D8E687E09CDEE8833C
:101B50000E946F0CE6018A8980FF0C940010E8ED6A
:101B6000E0933400E5E8E09301100C940010ECB32E
:101B7000E260ECBBFACB20DDF4DCA2DD81E76CDEB9
:101B8000CEDCF7CB89E668DE0C94B9091ADDE601F4
:101B90002A9620DDE6DC94DD83E75EDEE601EE8555
:101BA000E093626CE985E093666CABDDC7E0E2E44C
:101BB000FCE662DBC091626CE2E2FCE65DDBD9CB65
:101BC00000DDE6012A9606DDCCDC7ADD85E744DE21
:101BD000F2DDCFCBF1DCC5DC73DD82E73DDEF60163
:101BE000A285B385D32DCEE78585813808F0BDCB9E
:101BF0000D9009928A95E1F79ADCBBCBD4DCE1DC4D
:101C0000B0DCB6DC5DDD7DDD87E726DEF6018285B2
:101C10009385CCDEF6018585CEDE0398069820926A
:101C200006082B9868DDA0E8B0E0DD2DCEE7E2E401
:101C3000FCE624DBF601C285D385E2E2FCE6FCDAB1
:101C4000E601AD85B0E0C2E4DCE6E2E2FCE61ADBE8
:101C5000ECB3E260ECBB8DCBA6DCB3DC82DC30DD28
:101C600086E6FADDF60182859385A0DEA4DD43DDFC
:101C700003980698209206082B98E2E2FCE608DB1F
:101C8000F601C285D385E2E2FCE6D6DAE6018D856F
:101C9000FBDAFEDA9ADDECB3E260ECBB6ACB8BDCFC
:101CA000E6012A9697DC5DDC0BDD8DE6D5DDF601DD
:101CB00081858093686C0C94B9098DE2CDDDE8E0F4
:101CC000F8E032DE29DD0C94B9097BDCE6012A96C6
:101CD00081DC47DC55DC80E7BFDDAEDD14DC49CBC1
:101CE00070DCE6012A9676DC3CDCEADC82E5B4DDD9
:101CF000D1CAFFFFFFFFFFFFFFFFFFFFFFFFFFFF57
:10200000B5C0000081E07DC082E07BC083E079C084
:1020100084E077C085E075C086E073C087E071C05A
:1020200088E06FC089E06DC08AE06BC08BE069C05A
:102030008CE067C08DE065C08EE063C08FE061C05A
:1020400080E15FC081E15DC082E15BC083E159C096
:1020500084E157C085E155C086E153C087E151C096
:1020600056C0000089E14DC08AE14BC08BE149C0F8
:102070008CE147C08DE145C08EE143C08FE141C096
:1020800080E23FC081E23DC082E23BC083E239C0D2
:1020900084E237C085E235C086E233C087E231C0D2
:1020A00088E22FC089E22DC08AE22BC08BE229C0D2
:1020B0008CE227C08DE225C08EE223C08FE221C0D2
:1020C00080E31FC081E31DC082E31BC083E319C00E
:1020D00084E317C085E315C086E313C087E311C00E
:1020E00088E30FC089E30DC08AE30BC08BE309C00E
:1020F0008CE307C08DE305C08EE303C08FE301C00E
:1021000035C02B9820926608E82F0C9458173F0191
:10211000E091826CF091836C309110063193309194
:1021200011063083E091846CF091856C319130938D
:102130000C063191309308063191309301063191AC
:102140003093A00031913093826C31913093836C45
:10215000319130930B06319130930A06E093846CF1
:10216000F093856CF30118953332941DA895F8947B
:102170002224E8EDE0933400E5E8E0930110EFE17C
:10218000FAE6EDBFFEBFE8EDE4BF20921001E0E00B
:10219000FAE6C0E9DFE021922197E9F7A091026811
:1021A000A03110F0EBE108C1E0EAF0E0A1E8A08383
:1021B000E0E0F6E0A1E1A083A0E0A183A3E0A28398
:1021C000A0E0A383A0E0A483A1E0A0930506A2E47D
:1021D000A0872C9A00D78DD091D095D0A8D0ACD024
:1021E000B0D096D09AD09ED01CD78FD6B6D7AB9A07
:1021F000A39A78944CC1E2C561C160C1EBC55EC1D0
:102200005DC15CC15BC15AC159C158C104C056C14E
:1022100055C154C153C180D454D483E7CDD58BE08C
:102220008093AA6C81E08093AB6CE2E8F1EBCF93F2
:10223000C2E0C0930A06C1E0C0930D06C191C093ED
:102240000006C191C0930206C191C0930306C191DB
:10225000C0930406C191C0930C06C191C0930806B7
:10226000C191C0930106C191C093A000C191C093D8
:10227000826CC191C093836CC191C0930B06C191D4
:10228000C0930A06E093846CF093856CCF916091C3
:10229000346A7091356AEDD56093B56C7093B66C05
:1022A0009091336A9093B46C90912F6A9093AC6C38
:1022B0009091316A9093AD6C9091296A9093AE6C35
:1022C00090912B6A9093AF6C90912D6A9093B06C23
:1022D0009091236A9093B16C9091256A9093B26C1F
:1022E0009091276A9093B36CB8D3ECC0A898A09A49
:1022F0000895A09808958898809A089580980895E0
:102300004F98479A08954798089508950895089515
:10231000A99AA19A0895A1980895899A819A0895F1
:10232000819808954E9A469A089546980895AA98D5
:10233000A29A0895A29808958A98829A08958298F8
:1023400008954D98459A0895459808950C9408006D
:102350000C9409000C940A000C940B000C940C00D3
:102360000C940D000C940E000C940F000C941000B3
:102370000C9411000C9412000C9413000C94140093
:102380000C9415000C9416000C9417000C94180073
:102390000C9419000C941A000C941B000C941C0053
:1023A0000C941D000C941E000C941F000C94200033
:1023B0000C9421000C9422000C9423000C94240013
:1023C0000C9425000C9426000C9427000C942800F3
:1023D0000C9429000C942A000C942B000C942C00D3
:1023E0000C942D000C942E000C942F000C943000B3
:1023F0000C9431000C9432000C9433000C94340093
:102400000C9435000C9436000C9437000C94380072
:102410000C9439000C943A000C943B000C943C0052
:102420000C943D002092007020921970209232701E
:1024300020924B702092647020927D7020920071E7
:10244000209219712092327120924B712092647106
:1024500020927D7120920072209219722092327225
:1024600020924B722092647220927D7220920073AF
:10247000209219732092327320924B7320926473CE
:1024800020927D730895EBEF33943E2208959ED3FE
:10249000ECB3EE7FECBB16C0E29AC9D3F6D385E667
:1024A00018D610C0E29AC3D3F3D38EE712D60AC06F
:1024B000E29ABDD3F0D383E20CD604C0B8D3DFD305
:1024C0008EE200C0EFE1FAE6EDBFFEBF0698209273
:1024D0000608209266089ED5E2D598D506D0C9D3C5
:1024E000DDD3E3D3F1D3A3D3FBC3E1999BDFE79B18
:1024F000CADFE299ABD3E099FDD1ECB3E973ECBB51
:10250000ECB3E160ECBB02D0B5D025C157D552D5B4
:102510003ED0CC24E601D501D092386AB092396A17
:1025200087E17AD0F093886C87E176D0F093886C5D
:1025300087E172D0F093886C87E16ED0F093886C5D
:1025400087E16AD0F093886C8FE766D0FD2DE1E0DB
:10255000E081E7FD13D0E69B14D060EA7EE30090B3
:102560000A0B061600900B0B07060090060B01FEE7
:10257000B0F32B98E8E0E093A7040895E69AE79A71
:102580000895E1E0DE26EBEFB394BE220895A8950E
:1025900020920608209266082092000B20920A0BD7
:1025A00020920B0B20920C0B20920D0BEFEFE0937F
:1025B000060BEAECE0930608E2E4E0936608249A4E
:1025C0002B9A87E0CCE0D8E6A5E1B8E60D90159906
:1025D000FECFE3E0E093000B00926208039AE8E08C
:1025E000E093A704E0E0FFE80D90009262080090FD
:1025F000040807FEFCCF009001081090000802FCC0
:102600004BCF1992E125E0818A9589F36AF7E0932F
:10261000886C209206080895EAECE09306089D91E4
:10262000E6999E7F219690FD069AE0E0FFE80D90E6
:102630001599FECF90FD009202080D9090FD00923A
:1026400002080090040807FEFCCF009001081090DB
:10265000000802FC21CF109262081992E125E08166
:102660008A9579F352F7F091886CFE2B06982092A8
:1026700006080895E6990895DB2DC9E160EA74E43F
:10268000A0E0BBE487E12DD0DB2DC2E360EA70E57A
:10269000A0E0B7E587E125D0DB2DCBE460EA7CE55F
:1026A000A0E0B3E687E11DD0DB2DC4E660EA78E662
:1026B000A0E0BFE687E115D0DB2DCDE760EA74E747
:1026C000A0E6B3E98FE70DD0E69B47D1DCE6C9E889
:1026D00060EA78E9A0EDBEE987E103D020926608C0
:1026E000089500900A0B061600900B0B0706009049
:1026F000060B01FEB0F3BD01E8E0E093A704E2E8B9
:10270000E0936608DE01219600900A0B0616009001
:102710000B0B0706D0F40090640807FEF5CF00907D
:1027200061081090600802FC06C019928A9562F751
:1027300081E08C930AC000900A0B061600900B0BE8
:1027400007060090060B01FEB0F320926608E8E051
:10275000E093A7040895E6990895E2E8E0936608F7
:10276000EAE4E093060864EF7EE9A4ECB4EAC0E092
:10277000D8E780E06DD064EF74EAA4ECBAEAC9E16E
:10278000D8E781E065D064EF7AEAA4ECB0EBC2E36D
:10279000D8E782E05DD064EF70EBA4ECB6EBCBE45D
:1027A000D8E783E055D064EF76EBA4ECBCEBC4E64D
:1027B000D8E784E04DD064EF7CEBA4ECB2ECCDE73D
:1027C000D8E785E045D064EF72ECA4ECB8ECC6E93C
:1027D000D8E786E03DD064EF78ECA4ECBEECCFEA1D
:1027E000D8E787E035D064EF7EECA4ECB4EDC8EC1C
:1027F000D8E788E02DD064EF74EDA4ECBAEDC1EE1B
:10280000D8E789E025D064EF7AEDA4ECB0EECAEF0A
:10281000D8E78AE01DD064EF70EEA4ECB6EEC3E119
:10282000D9E78BE015D064EF76EEA4ECBCEECCE2F9
:10283000D9E78CE00DD064EF7CEEA4ECB2EFC5E4F8
:10284000D9E78DE005D02092660820920608089509
:102850006894909102688913E8942196E8E7F9E773
:102860008191919100900A0B061600900B0B0706C0
:10287000C8F32EF4069A8093020890930208BD01D3
:1028800088E10090040805FEFCCF0090640807FE74
:1028900004C00090600809928A95019016F4009295
:1028A0000208E03971F746F480E480930408009050
:1028B000040806FEFCCF069800900A0B061600904E
:1028C0000B0B070648F40090640807FEF5CF009054
:1028D000600809928A9581F700900A0B061600900D
:1028E0000B0B07060090060B01FEB0F3E8E0E09347
:1028F000A704089560EE7AEF00900A0B0616009088
:102900000B0B07060090060B01FEB0F3E8E0E09326
:10291000A704249A2C982B9A60EC7CEF00900A0B69
:10292000061600900B0B07060090060B01FEB0F395
:10293000E8E0E093A704249A2C9A60EA7EEF0090E6
:102940000A0B061600900B0B07060090060B01FE03
:10295000B0F3E8E0E093A7040895C8E7D9E7E1E021
:10296000F8E724D047D022D045D020D043D01ED085
:1029700041D01CD03FD01AD03DD018D03BD0E4E09D
:10298000F8E7AEE0808191810C01102819F4799666
:10299000AA95C1F780938D7990938E79C8E7D9E78E
:1029A00087E1A4D2F5E5EF27E8830895908120829E
:1029B0006181218272812282799680E090FD81601E
:1029C00060FD826070FD846091FD886061FD8061C2
:1029D00071FD806292FD806462FD8068899380E071
:1029E00072FD816093FD826063FD846073FD886089
:1029F0008883089590812082618121827281228260
:102A00007996888190FD806160FD806270FD8064B0
:102A100091FD8068899380E061FD816071FD826035
:102A200092FD846062FD886072FD806193FD80622A
:102A300063FD806473FD8068899308950C94721718
:102A40000C946D170C947617E601E885E03120F4BC
:102A5000F0E0E550FF4E099431CD9FD0E2EAFCE66C
:102A600087E1EEDF87C099D0E2EAFCE68DE0E8DF9F
:102A7000ECE0F8E683E0E4DF83E0E0DF6FC08DD0D8
:102A8000D32DCEE780E8E0E0F9E6DADF02C085D0BA
:102A900000C088D082D0F6018FE0D2DFD32DCEE700
:102AA000AFE7B0E05FDCF32DEC2D3F96A193B1933F
:102AB000C193D19353C0E60188E1C4DF09F40895BE
:102AC000F1CCE601A2E1B0E04DDCF601739671C0F5
:102AD000DD2DCEE7AFE7B0E045DCF6013F9669C0FB
:102AE000E0913A6AE211E150E0933A6AE211E6CCF1
:102AF000E601E985F091366AEF23FA95F093366A9C
:102B0000E211DCCC84C0E601E985F0917F6CF21122
:102B1000EF13D4CC08950895E091866CE0FFCECCFD
:102B20000895E091866CE0FD04C08091376A8211BF
:102B3000C5CC08950BDCA991B9910D010128AE1700
:102B4000BF07021051F404DCA991B9910D010128CD
:102B5000AE17BF07021009F40895B0CCD32DCC2DC9
:102B6000A2E1B0E0FFDBF32DEC2D7396A193B193BE
:102B7000C193D193D32DCC2D87E164DFE9930895E0
:102B8000DF93CF93C82F0E949517EF91FF91A193E8
:102B9000B193C193D193EF010895CC2DCA9504C090
:102BA000C4E602C0CDE700C0D32D8881816089933F
:102BB000089501900A1276CC01900B1273CC01900B
:102BC0000C1270CC01900D126DCC0895E3E0E093EF
:102BD000216AE0E0F4E76F01E0E0F0E75F01F2E78F
:102BE0003F2E2092866CE4E0ECBBE0D01DD00FC0FD
:102BF000E7990895FD2DE2E0808180FD01D00895E0
:102C0000E0913A6AE211EA95E0933A6A0895E09118
:102C10004801FFE0F491F093366A20923A6A0895F1
:102C2000EFE0E0933A6A08952092376A0895F32D11
:102C3000E0E02082F32DE9E12082E2E32082EBE470
:102C40002082E4E62082EDE720820895F0E7BF2E9F
:102C5000F2E73F2EE7CBE4E1F9E62192E033E9F732
:102C600008952092480120924901E1E0E093430158
:102C70000895E0E8F9E625C1E4E8F9E622C1E8E8CC
:102C8000F9E61FC1E0E9F9E61CC1ECE8F9E619C173
:102C9000E4E9F9E616C1E8E9F9E613C1E091886CC8
:102CA0002092886CE211FECB0895E7990895DD2DFE
:102CB000C5E0E881F091876CF395E093876CEF179E
:102CC00009F40895E29AF4CBDD2DC0E0ED85E093A0
:102CD000216AE79977C0EB85E77FF9E00C94E41768
:102CE00002D0E9DEB1CECAE1DD2DCC2E80E090E04D
:102CF000E0E0F9E609901190802901249029E8305C
:102D0000C9F7803011F09211D9CBE0E009F0E1E091
:102D1000E093866C089520927F6C20927B6CECB3DC
:102D2000E260ECBB089501D037C0E0E0F9E60E9414
:102D3000BA11EF010E94A611E993F9930E94A8111C
:102D4000E993F9930E947F17E993F9930E94821700
:102D5000E993F9930E94AA11E993F9930E94AC11A7
:102D6000E993F99382E00CDF81E00ADF83E008DF7A
:102D700084E006DF87E004DF85E002DF86E000DF35
:102D8000E0E1F1E180E15CDEE8E1F0E0E993F99374
:102D9000E0910A68E993089509D081E08993E8E019
:102DA000F9E68CE04DDE299229920895C2EADCE62C
:102DB000E0E0F9E688E044CE0C94691889E6FCDF8F
:102DC0000C9462128DE2F8DFE8E0F8E0FDD054DF09
:102DD0000C946212A6DEE6012A96ACDE72DE20DFDB
:102DE00082E5EADFFDCAE091826CF091836CEF2B03
:102DF0000895CF93C091826CC21106C0C091836CBC
:102E0000C21102C0CF9103C0CF9188940895CF938F
:102E1000C2E0C0930A06C1E0C0930D06C191C09301
:102E20000006C191C0930206C191C0930306C191EF
:102E3000C0930406C191C0930C06C191C0930806CB
:102E4000C191C0930106C191C093A000C191C093EC
:102E5000826CC191C093836CC191C0930B06C191E8
:102E6000C0930A06E093846CF093856CCF9108942C
:102E70000895769567957695679576956795769595
:102E800067958091061190910711861B970B6091B1
:102E90000411709105114FD0C695B795C695B79599
:102EA000C695B795C695B7957C2F6B2F0895ECE323
:102EB0000698F894AFE1BAE6ADBFBEBFA4D0A8951E
:102EC000FECF8081918101968083918328F4828155
:102ED00093810196828393830895019009928A9544
:102EE000E1F7089529928A95E9F70895E0E0FFE86F
:102EF0000990E025E0818A95D9F7EE230895E0E076
:102F0000F0E00895E0E0F0E00895EBE5FCE60E94D3
:102F1000DE11CBE3DAE60E94E011EBE3FCE60E946F
:102F2000DE11CBE3DAE60C94E011EBE5FCE60E945F
:102F3000E2110C94D211799FE001689FD001699F42
:102F4000B00DC11DD21D789FB00DC11DD21D0895B9
:102F500080E404C080E202C080E100C0C083D1836D
:102F60008283238224822582BDCF0DD007C00BD05F
:102F700003C009D0AA0FBB1FAA0FBB1FAA0FBB1FFC
:102F8000AA0FBB1F0895B381A081AB0FB181B21D01
:102F9000DC91CC93A481B581AD1BB209AC0FB21DFD
:102FA000A483B583C281D381D395DC1708F0DD27D4
:102FB000D38308950398179BFECF08951799FECFEA
:102FC0000895E2E0F2E000C0EF23F0950090206A5F
:102FD0000F22E02904C0E0E002C0EFEF00C0E09360
:102FE000206A00C0E091206A0C94B011EF23F095A4
:102FF0000090216A0F22E02906C0E0E004C0E5E568
:1030000002C0EFEF00C0E093216A00C0E091216AA6
:103010000C94AE11B69904C0E5E5B59B0C94DC1197
:1030200007C0442455240895AB980895AB9A089599
:10303000E0914408E7FF0895E0914008E0930077AD
:1030400008958F93892F0AD08F9108C08F93892F6D
:1030500005D08F9100C002D08CE23BC001D003C0EC
:103060008F93829501C08F938F70805D8A3308F0B3
:10307000895F2FD08F9108958AE02BD08DE029C0F1
:103080000F01451451F0F0914408F5FF06C0F6E732
:10309000E52DF081F09342085394F0010895451412
:1030A00059F0F0914408F5FFFACFF6E7E52DF081ED
:1030B000F09342085394F3CF0895C42DD6E70190BE
:1030C000002029F00882C395C511F9CFCA954C2E6E
:1030D000D8CF0F01F201FA95EF1719F0F6E78083C8
:1030E0004394CFCF8F938E2FF201FA95EF1719F0FB
:1030F000F6E7808343948F9108958991ACDF9A9588
:10310000E1F708958991821188130895E2DFFACFDB
:10311000C4E2D1EBF7DF80910A68A0DFC4E3D1EB12
:10312000F1DFBDCF0A0D1B5B34346D2E2E2E5B42BA
:103130004C442D005D1B5B6D0A0D0000C4E4D1EB17
:10314000E1DFADCF0A0D1B5B34336D2E2E2E5B55A8
:1031500050445D1B5B6D0A0D0000CCE6D1EBD2DF65
:10316000C0E0D8E690E1C9DF87DF99CF0A0D1B5B8D
:1031700034326D2E2E2E5B4150505D1B5B6D202D29
:1031800020001106000001420081806C0001014214
:103190000081346A000101050081226A00010103F7
:1031A0000081246A000101010081266A00010104F6
:1031B0000080286A0001010200802A6A00010100E3
:1031C00000802C6A0001010600802E6A00010107C0
:1031D0000080306A0001010B0081326A0001004268
:1031E000008100000002FFFFFFFFFFFFFFFFFFFF66
:00000001FF
