:020000020000FC
:100000000C9446000C9431020C9431020C94C701FC
:10001000EBC1EDC1EFC1F1C10DC1FFC0DCC5DDC554
:10002000F1C1EEC1F6C1A4C3A9C32EC431C4BAC381
:10003000C4C3CBC35EC437C445C4AEC3A3C3A7C344
:10004000D7C405C2F9C1FEC147C34CC357C358C387
:1000500060C36CC383C387C392C4F7C0FDC089C4A7
:10006000BCC3C6C3A2C3E2C4EBC400C5E9C6ECC6A8
:10007000EEC6F0C6F5C603C713C7B3C1010010C171
:100080000000000089AC1E660209C98AF894222487
:10009000E7E2F9E6EDBFFEBFE8EDF7E0E4BFF0937D
:1000A0000001A895E8EDF4E2E4BFF0936800E09168
:1000B0004000E0934000EFBBE8EDE4BF2092011068
:1000C0002BBE609A619AE8EDF0E6E4BFF093100170
:1000D000E0914101E211FCCF2092480120924901B8
:1000E000E1E0E0934001E1E5E093E205E3E0E09345
:1000F000E305EFE0E093E405E8E0E093B304E09388
:10010000B604E093B504E093B404E0E4F8E026829A
:10011000A0ECB0E0A087B187A0E8A583A3E0A78307
:10012000A2ECA683A698A598AB9AAC9AA39AA49A97
:10013000E8E0E0935204E0935304E0935104E09329
:100140005004E0E2F8E02682A0ECB0E0A087B1879E
:100150002582A6E0A783A2ECA683439841984A9AF9
:10016000489A429A409AA898A998A198A898A09AC3
:10017000899881988898809A4E9846984F98479A7F
:10018000A09A809A479A449A46D051D0F89902C0D2
:10019000F99B06C0E0E0F0E6AFEFA193F836E8F394
:1001A000E0E0F8E62192F038E8F3E0914801F091C0
:1001B0004901F230D0F3E2E030D035D0B69B0BC02D
:1001C00000900090009429F0C2E002D5AED409F46A
:1001D0005BC1E1E03CC1E0E0FAE0208221822282C2
:1001E0002382AFE0A083E0E0FBE020822182AEE644
:1001F000B1E0A487B587A1E0A583A5E0A083B5D22F
:10020000BAD2789406D00FD0C2E6D9D4E0E0E4D1D7
:1002100040C0E0E002C0EFEF00C0E0FF4C9AE0FD1C
:100220004C98F0E009C0E0E005C0E5E503C0EFEF61
:1002300001C0E32FF1E000C00090240805FEFCCFD0
:10024000E0932208F09323080895E8EDF1E0E093AD
:100250003400F0934100FFCFA895E8EDE4BFE1E062
:10026000E0930001FFCFCDD316D39681C1D30C927A
:10027000BED3CCC3C6D3BBD39781BAD30CD309901A
:100280001C9001100C9211960197C9F7B0D3BED300
:100290000895E7E2F9E6EDBFFEBF222734E0EAE287
:1002A0009BD1C091006994D43CD1203491F324FDBA
:1002B00010C026FFF9CFE2E5F3E0059000160590A7
:1002C000159019F4F0010995E4CFEE38B1F720FF4D
:1002D000EBCF003449F7622F6370613029F7206259
:1002E0000DD17A3B21F46131A1F62061DDCF24FFED
:1002F000D0CF7B3B39F4693060F6C62F69D42460D7
:1003000031E0D2CF7C3B21F422FFC3CF98D1CCCFB8
:100310007F3B51F6603011F40AD0BBCF613009F455
:100320000AD0B7CF68E08BC1C02F49D4B2CF87D3F2
:10033000E0EE52D1AECF99D3EEEE4ED1AACF00531C
:10034000E1E00A9512F0EE0FFCCFFEB3FE27FEBBF4
:100350000895309F01319F01329F01339F01349FE7
:1003600001359F01369F01379F01533A0252210206
:100370006492016194016294016394016594016641
:1003800094017394017594016C9401004901EFB6D6
:100390004F01E0914408E7FF13C0E72DE619E03C68
:1003A00023FF08F0AB9AE0914108E2FD82C0F0E73C
:1003B000E72D7090400871927E2EF401EFBE1895E3
:1003C000E091060BE093060B761411F442104A9468
:1003D0003A9422F4332EE0E1E0934704F401EFBEB7
:1003E0001895E0E0F0E00895EDE0F0E00895E0E138
:1003F000F1EC0895E1E0F0E00895E0E1F1EC08951A
:1004000003D0EBC301D0E7C3AFE0B0E0C0E1D1E17E
:100410000895F8DFA193B193C193D193F1DFA19334
:10042000B193C193D1930895DFEF672C94D06710F7
:10043000FBCF2197D9F7089517D048F00895EBE046
:1004400001C0EAE0F7DE2092480120924901A89518
:10045000F894AB98F0E208D0E8F7ECDEF0E404D0D2
:10046000E8F7D7DEE0DEF1CE0090480100904901C8
:10047000F0150895C0910069ABD357D3C9F4CF31BB
:1004800011F0CB31A9F4D0DF209245082092000A68
:100490002092000B2092050B2092480120924901E6
:1004A00093D1FE01E050F048F695E795F894099451
:1004B000FBCEF89420924608AB98E8E0AEDEE5E586
:1004C000B9DEEFEFA89500C000C000C0E211EA95C8
:1004D000B59BF8CFE211F5CFC4CF8E2F9927AADEB6
:1004E000E8E09BDEE6EA78D0F0910900E2E0F4FD76
:1004F000EAE093DE32E0672C2ED0F6CF04D0702FE6
:1005000002D0602F089507D002950F9304D00F906A
:100510000029F00E089505D00F7D075308F4095DFA
:10052000089519D0421002C025FDB3CE7614C9F348
:10053000F0E7E62D00816394206442102F7B26FDB6
:100540002F7EFBE04F2E21FF23950A3011F00D3056
:1005500009F42C7F00C00F01A89523FD06C0E72DEC
:10056000E619E03218F4AB9801C0AB9AF001089597
:10057000019101D003C00F93029501C00F930F703A
:10058000005D0A3308F0095F1BD00F910895092F11
:10059000F0DF082FEECF0AE013D00DE011C0E0E04D
:1005A000F1E1E6DFE5DFE4DF0EE20AD029DFCE018C
:1005B000EEDFCD01ECDF26DFCE01E9DFCD01E7CFB5
:1005C000D8E1C9DF0090440805FEFBCF2197B6991A
:1005D000C1F7009342080895E0930169FDE0E091BE
:1005E000016905910DBBE0930169002391F012F0C0
:1005F000E7DFF4CFE9990ED0EA9911D0EB991AD040
:10060000EC99CDDFEE9913D0ED99B2D2E899C3DF22
:10061000E5CF0895C591E0930169DAD290C20090C8
:100620000069109031690AE210100895C9CF09E0FD
:10063000C7DF87C2EC9BABCFEC980EB39ACF6CBBF5
:10064000E099BAD2E19907D0E3999AD2E6991CCF02
:10065000E799F5CE089517D1B7D0C0930269D0932A
:1006600003695FDF20FFFDCF0A33D9F74CDF502E3F
:10067000F02E44DFC0910269D0910369C60FD71FE5
:1006800042DF003031F00130F1F0023069F0E4E097
:1006900024CFFDD008945208A0F02AD1E5E0C8F09C
:1006A00032DF802F0ED1F6CF29DF660F771F660F5E
:1006B000771F660F771F660F771F6093026970932D
:1006C000036903D0CECF5AD100C01DDFF21411F060
:1006D000E6E003CF0895BBD0C0E7D3E049D04EC0D9
:1006E000A8950895C487D5870895C93008F0C9E052
:1006F000DCE0CD9FE001CE54D5470895F6DFADC0D4
:10070000C083D183C48BD58BCA0FDB1FC283D38335
:100710000895A68FA895C28FD38FD5D020F0C28D13
:10072000D38D2197B9F70895AA27BB27C48FD58FFA
:10073000EC8FFD8FA895A28FB38FC48DD58DFE0150
:10074000B2D048F0C48DD58DFE01BCD020F0A28D72
:10075000B38D119779F708958FEF79D0868FA8958B
:10076000B2D0E8F70CC1FADFFFCF71D0CBE0D5E013
:10077000C68BD78B08956BD0C4E1D5E0C08FD18FE5
:10078000089565D081D00ED018D025C260D07CD01D
:1007900009D013D022C25BD0F5DF02841384C015C8
:1007A000D1050895C489D5890895C489D589008063
:1007B0001180C019D10908954AD0A281B38104885B
:1007C0001588A019B109089542D0C081D18108953A
:1007D0003ED0C281D38108953AD000801180C28179
:1007E000D381C019D10909F021960024021C089573
:1007F0007CDFFE0100801180C281D381F2CF0C2EFC
:10080000CEEBDAE81884101419F02C96CE31D1F71B
:100810000895DCE0CD9FE001CE54D5470895CE0188
:10082000CEEBDAE8088019808015910530F00A8057
:100830001B808015910531F028F02C96CE3191F770
:100840000894089588940895A0E0B1E70895E8E237
:10085000F9E60895FCDFA487B5878CE00990019242
:100860008A95E1F73C97C481D5812197C095D095B1
:10087000C28BD38BC081D181C687D787C08BD18BE8
:10088000278E02D07EC0E3DFC081D18101C0DFDFCF
:10089000C48BD58B089584819581A685B785C48541
:1008A000D5850895D4DF25D038F0C489D58950D0B6
:1008B00020F08991C48BD58B089521968FEF0894F1
:1008C000F9CFC5DF868F15D090F053D0C481D58184
:1008D0002197A489B589CA23DB231196A48BB58BF4
:1008E000A485B585CA0FDB1F868D888388940895FB
:1008F000AEDF04881080011405881180010440F0E7
:1009000004881280011405881380010419F010F086
:1009100008940895889408959ADFC489D589A68596
:10092000B785CA17DB0730F0A089B189CA17DB0782
:1009300019F010F0089408958894089588DFC6850A
:10094000D78506D0A78DAE7F08F4A160A78F089544
:10095000C034B0E1DB0748F0D63148F0D03628F09B
:10096000D03828F0D03908F002C00894089588944F
:100970000895D3DF10F403D004D0089568DF2BD09E
:1009800026C0C489D58902881388C021D121C68791
:10099000D78784819581C80FD91F2197C08BD18BB0
:1009A000CEDF40F0A685B785C485D5850D90099228
:1009B0000197E1F70895078C00FC07C06CDF0990F0
:1009C0001D90011419F40197D1F718940895F3DFDD
:1009D00009F050CC0895078C00FC08955CDF099065
:1009E0001D90102001103FCC0197C9F7089590E0A9
:1009F000809102108370E1F78DE984BF909300101D
:100A0000089506880F9207880F920895008C0F9220
:100A1000018C0F9208952860AB9AFF93F4E69BDD5A
:100A2000FA95E9F7FF910895277F95CDC2E066DE3C
:100A300080E180930110B0DE20920110089507DF5D
:100A4000EF01DFDF2BD069F09BE0D2DFE895CFDF4D
:100A500092E0CEDF00801180E8953296F03AD1F72F
:100A6000C6DFFE01D3CF02D0F7CBF1DEFF93EF93C9
:100A7000C8DFDCDF81F412D071F094919F3F59F010
:100A80009BE0B6DF0082B3DF92E0B2DF0490019218
:100A9000F03AE1F7ACDFEF91FF91B8CFE0E0F0E999
:100AA00094918191891711F4F03AD1F7E0E0F0E9DF
:100AB00008950000FFFF010000002D00000000A0CD
:100AC000FFFF0002080266011FC10090FF9F0002A5
:100AD000080262021BC10014FF1501001812650311
:100AE0001EC180109F102000080263041CC1001169
:100AF0001F11010000007305000050105810010084
:100B00000000750600000060FF670002000061073A
:100B10001AC140104F10010000006C0800000011C5
:100B20000011010000002D09000035DEA0930469CA
:100B3000B0930569C0930669D09307690895F5DFFE
:100B400006C0E0E1E0930110F0DF20920110E0ED3B
:100B500009F4E6ED0ED0909107698091066917DDE2
:100B6000909105698091046912DD02C0E0ED01C039
:100B7000ECEDFDE00591002311F022DDFBCF08959F
:100B80000ADD81DEF3DF63DE8489958900E1080FE9
:100B9000090FF02EE2E920DD85DE38F0082FF00E97
:100BA000E8DC55DE04890F70B9F7E0DFF1940F2D12
:100BB000E0DC9EDE40F7089566DECEDDDFCE05D0B8
:100BC0000091316900930069089519DE3DDE42CE3F
:100BD00020DE3ADE3FCEE89404C06894CA0FDB1FE3
:100BE00000C0EF93FF936FEF7FEFCB01FF27A89536
:100BF0000EF019900EF41A9008941794062E0F1EFA
:100C0000969587957795679500FE08C0EDEE9E272F
:100C1000E8EB8E27E3E87E27E0E26E27169471F773
:100C2000119728F790958095709560950E01DB01DE
:100C3000EC018623872389238095FF91EF91089506
:100D0000A1811B5B34316D2E2E2E5B524553455411
:100D10002D885DA11B5B34346D2E2E2E5B524F4D02
:100D20002E5254422E7077725D00A1814944205B9F
:100D3000905D814C3A208708523A201B5B33326D1C
:100D40004331315230303031A1533A208705553A82
:100D500020870681413A208707423A20C702433A5A
:100D6000208704453A208703463A20870181524F65
:100D70004D205B987C527C537C645D202D205B6110
:100D80007C627C637C657C667C6C7C737C755D3E80
:100D90002000813A31301B5B39346DA81B5B393040
:100DA0006D3030A0000081811B5B34356D2E2E2EFE
:100DB0005B4572726F722023885DA0202D203C62FB
:100DC0007265616B3E20746F20726573756D65008E
:100DD0001B5B39306D001B5B33326D001B5B6D009C
:100DE000A1811B5B34346D5B532D3E5D0000A181FE
:100DF0001B5B34346D5B3C2D525D0000FFFFFFFF39
:100E0000ACAAA9A5A3A69C9A999593968E8D8BB111
:100E1000B2B4B874726C6A696563665C5A595553AA
:100E2000564E4D4B4771E8E4E2D1C9C5D8D4D2CA79
:100E3000C6CC78171B1D1E2E363A272B2D3539337D
:100E40001ED00ED01CD00CC00BD019D009C017D0AA
:100E500007D015C005D0E991EF73E081ED930895B7
:100E6000E991EF70F881FF0FEE1FFF0FEE1FFEE814
:100E7000E081ED93E991EF73E081ED930895FEE851
:100E8000E881E695E695E081ED93E991E370E295DE
:100E9000F881F07FF295EF2BFEE8E081ED93089565
:100EA000FEE8E881E081ED930895FFFFFFFFFFFF7B
:100F0000005EBCE2613FDD83C29C7E20A3FD1F41E9
:100F10009DC3217FFCA2401E5F01E3BD3E6082DCD9
:100F2000237D9FC1421CFEA0E1BF5D0380DE3C62C9
:100F3000BEE0025CDF81633D7C22C09E1D43A1FFB9
:100F40004618FAA427799BC584DA3866E5BB5907A9
:100F5000DB856739BAE406581947A5FB7826C49A99
:100F6000653BD987045AB8E6A7F91B45C6987A2489
:100F7000F8A6441A99C7257B3A6486D85B05E7B979
:100F80008CD2306EEDB3510F4E10F2AC2F7193CD69
:100F9000114FADF3702ECC92D38D6F31B2EC0E5059
:100FA000AFF1134DCE90722C6D33D18F0C52B0EE49
:100FB000326C8ED0530DEFB1F0AE4C1291CF2D7339
:100FC000CA947628ABF517490856B4EA6937D58B29
:100FD0005709EBB536688AD495CB2977F4AA481619
:100FE000E9B7550B88D6346A2B7597C94A14F6A809
:100FF000742AC896154BA9F7B6E80A54D7896B35F9
:1010000087C0FFCFFFC7FFCFFFC7FFCFFFC7FFCF0F
:10101000FFC7FFCFFFC7FFCFFFC7FFCFFFC7FFCF80
:10102000FFC7FFCFFFC7FFCFFFC7FFCFFFC7FFCF70
:10103000FFC7FFCFFFC7FFCFFFC7FFCFFFC7FFCF60
:10104000FFC7FFCFFFC7FFCFFFC7FFCFFFC7FFCF50
:10105000FFC7FFCFFFC7FFCFFFC7FFCFFFC7FFCF40
:10106000FFC7FFCFFFC7FFCFFFC7FFCFFFC7FFCF30
:10107000FFC7FFCFFFC7FFCFFFC7FFCFFFC7FFCF20
:10108000FFC7FFCFFFC7FFCFFFC7FFCFFFC7FFCF10
:10109000FFC7FFCFFFC7FFCFFFC7FFCFFFC7FFCF00
:1010A000FFC7FFCFFFC7FFCFFFC7FFCFFFC7FFCFF0
:1010B000FFC7FFCFFFC7FFCFFFC7FFCFFFC7FFCFE0
:1010C000FFC7FFCFFFC7FFCFFFC7FFCFFFC7FFCFD0
:1010D000FFC7FFCFFFC7FFCFFFC7FFCFFFC7FFCFC0
:1010E000FFC7FFCFFFC7FFCFFFC7FFCFFFC7FFCFB0
:1010F000FFC7FFCFFFC7FFCFFFC7FFCFFFC7FFCFA0
:1011000001001BC10100000089AC1E66986F60835E
:10111000A895F8942224EFB3E0930A68EFE1FAE689
:10112000EDBFFEBFECE046D4E8EDF3E0E4BFF093A2
:10113000600000C000C0E0916300E1FDFCCFE8ED7D
:10114000F1E0E4BFF09362002FD4E0E0FAE6C0E003
:10115000D6E121922197E9F7E8E0E0931604E093C5
:101160001304E0931704E0931504E0931404E0E003
:10117000F8E02682A0E6B0E0A087B187A0E0A583D2
:10118000A3E0A783069803980798059804980E98FB
:101190000B98E8E020923304E0933504E0933404A4
:1011A000E0E6F8E02682A0E6B0E0A087B187A0E004
:1011B000A583A3E0A783A2ECA6832B982598239A66
:1011C000249AE0E0FBE02082218224862586AFEF8E
:1011D000A683FED38ED3D6D3A895E8EDE4BFE5E091
:1011E000E09300016FD4AB98A39AB1C0F2C494C548
:1011F000E9C49DC5A0C4F1C40AC513C526C553C51D
:1012000075C5B9C0B8C0B7C0B6C0B5C00C940800A9
:101210000C9409000C940A000C940B000C940C0024
:101220000C940D000C940E000C940F000C94100004
:101230000C9411000C9412000C9413000C941400E4
:101240000C9415000C9416000C9417000C941800C4
:101250000C9419000C941A000C941B000C941C00A4
:101260000C941D000C941E000C941F000C94200084
:101270000C9421000C9422000C9423000C94240064
:101280000C9425000C9426000C9427000C94280044
:101290000C9429000C942A000C942B000C942C0024
:1012A0000C942D000C942E000C942F000C94300004
:1012B0000C9431000C9432000C9433000C943400E4
:1012C0000C9435000C9436000C9437000C943800C4
:1012D0000C9439000C943A000C943B000C943C00A4
:1012E0000C943D0020920078209219782092327858
:1012F00020924B782092647820927D782092007919
:10130000209219792092327920924B792092647937
:1013100020927D792092007A2092197A2092327A56
:1013200020924B7A2092647A20927D7A2092007BE0
:101330002092197B2092327B20924B7B2092647BFF
:1013400020927D7B0895EBEF33943E2208958BD15C
:1013500016C0E29ABBD1E8D185E692D310C0E29ADA
:10136000B5D1E5D18EE78CD30AC0E29AAFD1E2D1F4
:1013700083E286D304C0AAD1D1D18EE200C0069800
:10138000209206081ED362D3EFE1FAE6EDBFFEBF5E
:1013900014D307D0BDD1D1D1D7D1E5D197D177D151
:1013A000EEC1E1999FDFE79BCEDFE2999ED1ECB3DE
:1013B000E973ECBB00C0B7D2B2D22DD0CC24E60189
:1013C000D50187E165D0F0936F6C87E161D0F09330
:1013D0006F6C87E15DD0F0936F6C87E159D0F0932B
:1013E0006F6C87E155D0F0936F6C8FE751D0FD2D76
:1013F000E1E0E081E7FD06D0E69B07D0E8E0E0937E
:10140000A7040895E69AE79A0895E1E0DE26EBEF57
:10141000B394BE2237C0A895209206082092000BF4
:10142000E0E0F0E0E0930A0BF0930B0B20920C0B42
:1014300020920D0BEFEFE093060BEAECE093060829
:1014400087E0C0E7DCE61599FECFE3E0E093000B10
:10145000039AE8E0E093A704E0E0FFE800900408C6
:1014600007FEFCCF009001081090000802FC71CF2D
:101470001992E125E0818A958AF7E0936F6C2092BA
:1014800006080895E0E7FCE6CCE0D8E687E019C25C
:10149000EAECE09306089D91E6999E7F219690FDE7
:1014A000069AE0E0FFE80D901599FECF90FD0092BE
:1014B00002080D9090FD009202080090040807FEBB
:1014C000FCCF009001081090000802FC42CF199256
:1014D000E125E0818A9589F362F7F0916F6CFE2B2C
:1014E00006982092060808950C94660C0C94610CE2
:1014F0000C946A0C9FD0E8E7FCE687E1F7DF87C031
:1015000099D0E8E7FCE68DE0F1DFECE0F8E683E077
:10151000EDDF83E0E9DF6FC08DD0D32DCEE780E82B
:10152000E0E0F9E6E3DF02C085D000C088D082D0D9
:10153000F6018FE0DBDFD32DCEE7AFE7B0E072DE60
:10154000F32DEC2D3F96A193B193C193D19353C04A
:10155000E60188E1CDDF09F4089501CFE601A2E1BB
:10156000B0E060DEF601739671C0DD2DCEE7AFE727
:10157000B0E058DEF6013F9669C0E0916C6CE21174
:10158000E150E0936C6CE211F6CEE601E985F09152
:10159000676CEF23FA95F093676CE211ECCE86C08E
:1015A000E601E985F091666CF211EF13E4CE08953F
:1015B0000895E0916D6CE0FFDECE0895E0916D6CD2
:1015C000E0FD04C08091686C8211D5CE08951EDEC6
:1015D000A991B9910D010128AE17BF07021051F46E
:1015E00017DEA991B9910D010128AE17BF070210AE
:1015F00009F40895C0CED32DCC2DA2E1B0E012DEC7
:10160000F32DEC2D7396A193B193C193D193D32D68
:10161000CC2D87E16DDFE9930895DF93CF93C82F39
:101620000E94890CEF91FF91A193B193C193D19343
:10163000EF010895CC2DCA9504C0C4E602C0CDE7E1
:1016400000C0D32D888181608993089501900A128A
:1016500086CE01900B1283CE01900C1280CE0190A9
:101660000D127DCE0895E3E0E093216AE0E0FCE70F
:101670006F01E0E0F8E75F01FAE73F2E20926D6C22
:101680002092696CE4E0ECBBC5D01DD00FC0E79997
:101690000895FD2DE2E0808180FD01D00895E09164
:1016A0006C6CE211EA95E0936C6C0895E09148014E
:1016B000FFE0F491F093676C20926C6C0895EFE07A
:1016C000E0936C6C08952092686C0895F32DE0E02F
:1016D0002082F32DE9E12082E2E32082EBE4208204
:1016E000E4E62082EDE720820895F8E7BF2EFAE7CE
:1016F0003F2EF8CDE4E1F9E62192E033E9F70895D1
:101700002092480120924901E1E0E09343010895CD
:10171000E0E8F9E6CAC0E4E8F9E6C7C0E8E8F9E6B7
:10172000C4C0E0E9F9E6C1C0ECE8F9E6BEC0E4E90E
:10173000F9E6BBC0E8E9F9E6B8C0E0916F6C209229
:101740006F6CE2110CCE0895E7990895DD2DC5E088
:10175000E881F0916E6CF395E0936E6CEF1709F4ED
:101760000895E29A02CEDD2DC0E0EC85E093216A77
:10177000E799CAC2EB85E77FFBE00C94BB0C1ED057
:10178000E7DE37C0E0910068F0910168C3E301D063
:1017900015C0DD2DCC2E888199819F3F49F4803082
:1017A00051F08F3F51F00090696C801521F005C019
:1017B0008E179F0711F40F900F900895CAE1DD2D49
:1017C000CC2E80E090E0E0E0F9E6099011908029CD
:1017D00001249029E830C9F7803011F09211CBCD67
:1017E000E0E009F0E1E0E0936D6C0895E601EA8144
:1017F00002C0E601E885E03120F4F0E0EA50F74F5E
:101800000994B9CD2092666C2092626CECB3E260D0
:10181000ECBB089501D037C0E0E0F9E60E941A0958
:10182000EF010E940609E993F9930E940809E993E0
:10183000F9930E94730CE993F9930E94760CE99353
:10184000F9930E940A09E993F9930E940C09E9931C
:10185000F99382E0E2DE81E0E0DE83E0DEDE84E038
:10186000DCDE87E0DADE85E0D8DE86E0D6DEE0E1A9
:10187000F1E180E13BDEE8E1F0E0E993F993E0910A
:101880000A68E993089509D081E08993E8E0F9E6D0
:101890008CE02CDE299229920895C8E7DCE6E0E08E
:1018A000F9E688E023CE0C94400D80819181019669
:1018B0008083918328F4828193810196828393832C
:1018C0000895019009928A95E1F7089529928A95E1
:1018D000E9F70895E0E0FFE80990E025E0818A95C6
:1018E000D9F7EE230895E0E0F0E00895E0E0F0E0BD
:1018F0000895E2E4FCE60E943E09C2E2DAE60E94B4
:101900004009E2E2FCE60E943E09C2E2DAE60C94FB
:101910004009E2E4FCE60E9442090C943209039873
:10192000179BFECF08951799FECF0895C0E0D8E623
:10193000A4E0B0E00EC0C0E0D8E6A8E0B0E014C07B
:10194000C0E0D8E680E0C2DF00C0EFEFE0930968B6
:10195000089568DCF001A095B095C095D095A0835E
:10196000B183C283D38308955DDCF0018083089541
:10197000E2E0F2E000C0EF23F0950090206A0F2231
:10198000E02904C0E0E002C0EFEF00C0E093206A6D
:1019900000C0E091206A0C941009EF23F0950090AC
:1019A000216A0F22E02906C0E0E004C0E5E502C09C
:1019B000EFEF00C0E093216A00C0E091216A0C942F
:1019C0000E09B69904C0E5E5B59B0C943C0907C027
:1019D000442455240895AB980895AB9A0895E09156
:1019E0004408E7FF0895E0914008E093007E0895E1
:1019F0008F93892F0AD08F9108C08F93892F05D09C
:101A00008F9100C002D08CE23BC001D003C08F9305
:101A1000829501C08F938F70805D8A3308F0895F53
:101A20002FD08F9108958AE02BD08DE029C00F012F
:101A3000451451F0F0914408F5FF06C0FFE7E52D8D
:101A4000F081F09342085394F0010895451459F041
:101A5000F0914408F5FFFACFFFE7E52DF081F09310
:101A600042085394F3CF0895C42DDFE7019000207E
:101A700029F00882C395C511F9CFCA954C2ED8CF4D
:101A80000F01F201FA95EF1719F0FFE780834394F5
:101A9000CFCF8F938E2FF201FA95EF1719F0FFE752
:101AA000808343948F91089580934208089589918B
:101AB000A9DF9A95E1F70895899182118813089515
:101AC000DFDFFACFC8EDDAE9F7DF80910A689DDF42
:101AD000C8EEDAE9F1DFBACF0A0D1B5B34346D2EA4
:101AE0002E2E5B424C442D005D1B5B6D0A0D0000E9
:101AF000C8EFDAE9E1DFAACF0A0D1B5B34336D2EA4
:101B00002E2E5B5550445D1B5B6D0A0D0000C0E23C
:101B1000DBE9D2DFC0E0D8E690E1C9DF84DF96CF11
:101B20000A0D1B5B34326D2E2E2E5B4150505D1B17
:101B30005B6D202D20003DDD11DDC1DD82E6B3DED1
:101B4000C0911A69D0911B69CF31C1F5D13CB1F573
:101B500003980698209206082B9828DF77DFE60185
:101B60008985809302688889998980930368909316
:101B700004688E859F858093006890930168ECE0EF
:101B8000F8E6C5E1D8E687E09CDE8091026883959F
:101B900080931668C5E1D8E687E09CDEE8830E9462
:101BA000960CE6018A8980FF0C940010E8EDE09322
:101BB0003400E5E8E09301100C940010ECB3E2600F
:101BC000ECBBD9CBF6DCCADC7ADD81E76CDEA4DCC9
:101BD000D6CB89E668DE0C94BF09F0DCE6012A96D4
:101BE000F6DCBCDC6CDD83E75EDEE601EE85E093CF
:101BF000626CE985E093666C83DDC7E0E2E4FCE6B5
:101C000041DBC091626CE2E2FCE63CDBB8CBD6DCA7
:101C1000E6012A96DCDCA2DC52DD85E744DEF2DD5B
:101C2000AECBC7DC9BDC4BDD82E73DDEF601A28557
:101C3000B385D32DCEE78585813808F09CCB0D90F8
:101C400009928A95E1F770DC9ACBAADCB7DC86DCD6
:101C50008CDC35DD55DD87E726DEF6018285938550
:101C6000CCDEF6018585CEDE039806982092060824
:101C70002B9840DDA0E8B0E0DD2DCEE7E2E4FCE605
:101C800003DBF601C285D385E2E2FCE6DBDAE6019E
:101C9000AD85B0E0C2E4DCE6E2E2FCE6F9DAECB302
:101CA000E260ECBB6CCB7CDC89DC58DC08DD86E6D2
:101CB000FADDF60182859385A0DEA4DD1BDD0398A5
:101CC0000698209206082B98E2E2FCE6E7DAF60195
:101CD000C285D385E2E2FCE6B5DAE6018D85DADA83
:101CE000DDDA9ADDECB3E260ECBB49CB61DCE60106
:101CF0002A966DDC33DCE3DC8DE6D5DDF6018185EB
:101D00008093686C0C94BF098DE2CDDDE8E0F8E0CB
:101D100032DE01DD0C94BF0951DCE6012A9657DC66
:101D20001DDC2BDC80E7BFDDAEDDEADB28CB46DC4B
:101D3000E6012A964CDC12DCC2DC82E5B4DDB0CAD6
:10200000BAC0000081E084C082E082C083E080C06A
:1020100084E07EC085E07CC086E07AC087E078C03E
:1020200088E076C089E074C08AE072C08BE070C03E
:102030008CE06EC08DE06CC08EE06AC08FE068C03E
:1020400080E166C081E164C082E162C083E160C07A
:1020500084E15EC085E15CC086E15AC087E158C07A
:102060005DC0000089E154C08AE152C08BE150C0DC
:102070008CE14EC08DE14CC08EE14AC08FE148C07A
:1020800080E246C081E244C082E242C083E240C0B6
:1020900084E23EC085E23CC086E23AC087E238C0B6
:1020A00088E236C089E234C08AE232C08BE230C0B6
:1020B0008CE22EC08DE22CC08EE22AC08FE228C0B6
:1020C00080E326C081E324C082E322C083E320C0F2
:1020D00084E31EC085E31CC086E31AC087E318C0F2
:1020E00088E316C089E314C08AE312C08BE310C0F2
:1020F0008CE30EC08DE30CC08EE30AC08FE308C0F2
:1021000001001FC10201000089AC1E6697BEBF52CC
:102110002B9820926608E82F0C94EF173F01E0916E
:10212000896CF0918A6C30911006319330911106D0
:102130003083E0918B6CF0918C6C319130930C0674
:1021400031913093080631913093010631913093EB
:10215000A00031913093896C319130938A6C319128
:1021600030930B06319130930A06E0938B6CF09319
:102170008C6CF3011895A895F8942224E8EDE0936F
:102180003400E5E8E0930110EFE1FAE6EDBFFEBFB1
:10219000E8EDE4BF20921001E0E0FAE6C0E9DFE0FC
:1021A00021922197E9F7A0910268A03110F0EBE1AC
:1021B0009FC0E0EAF0E0A1E8A083E0E0F6E0A1E162
:1021C000A083A0E0A183ABE0A283A0E0A383A0E072
:1021D000A483A0E0A0930506A2E4A0872C9A92D73E
:1021E00024D028D02CD03FD043D047D02DD031D0D0
:1021F00035D00E94A8180E941C180E944419789497
:10220000E2C081C5F7C0F6C08AC5F4C0F3C0F2C011
:10221000F1C0F0C0EFC0EEC0EDC0ECC0EBC0EAC052
:10222000E9C000C6A898A09A0895A0980895889833
:10223000809A0895809808954F98479A08954798EE
:102240000895089508950895A99AA19A0895A198C6
:102250000895899A819A0895819808954E9A469A88
:10226000089546980895AA98A29A0895A298089564
:102270008A98829A0895829808954D98459A08956B
:10228000459808950C9408000C9409000C940A00D9
:102290000C940B000C940C000C940D000C940E008C
:1022A0000C940F000C9410000C9411000C9412006C
:1022B0000C9413000C9414000C9415000C9416004C
:1022C0000C9417000C9418000C9419000C941A002C
:1022D0000C941B000C941C000C941D000C941E000C
:1022E0000C941F000C9420000C9421000C942200EC
:1022F0000C9423000C9424000C9425000C942600CC
:102300000C9427000C9428000C9429000C942A00AB
:102310000C942B000C942C000C942D000C942E008B
:102320000C942F000C9430000C9431000C9432006B
:102330000C9433000C9434000C9435000C9436004B
:102340000C9437000C9438000C9439000C943A002B
:102350000C943B000C943C000C943D0020920070C7
:10236000209219702092327020924B7020926470EB
:1023700020927D702092007120921971209232710A
:1023800020924B712092647120927D712092007294
:10239000209219722092327220924B7220926472B3
:1023A00020927D72209200732092197320923273D2
:1023B00020924B732092647320927D730895EBEF0B
:1023C00033943E2208957DD3ECB3EE7FECBB16C070
:1023D000E29AAAD3D7D385E613D710C0E29AA4D342
:1023E000D4D38EE70DD70AC0E29A9ED3D1D383E22D
:1023F00007D704C099D3C0D38EE200C0EFE1FAE65C
:10240000EDBFFEBF0698209206082092660899D676
:10241000DDD693D606D0AAD3BED3C4D3D2D384D329
:10242000DCC3E1999BDFE79BCADFE2998CD3E0999B
:10243000EED1ECB3E973ECBBECB3E160ECBB02D0E2
:10244000AFD019C152D64DD63BD0CC24E601D50130
:10245000D0923F6AB092406A87E174D0F0938F6C5B
:1024600087E170D0F0938F6C87E16CD0F0938F6C24
:1024700087E168D0F0938F6C87E164D0F0938F6C24
:102480008FE760D0FD2DE1E0E081E7FD10D0E69B15
:1024900011D060EA7EE300900A0B061600900B0B49
:1024A00007060090060B01FEB0F32B980895E69AFC
:1024B000E79A0895E1E0DE26EBEFB394BE2208959B
:1024C000A89520920608209266082092000B209280
:1024D0000A0B20920B0B20920C0B20920D0BEFEFAE
:1024E000E093060BEAECE0930608E2E4E09366086A
:1024F000249A2B9A87E0CCE0D8E6A5E1B8E60D90C7
:102500001599FECFE3E0E093000B00926208039A76
:10251000E0E0FFE80D90009262080090040807FEDA
:10252000FCCF009001081090000802FC51CF1992D6
:10253000E125E0818A9589F36AF7E0938F6C209218
:1025400006080895EAECE09306089D91E6999E7FBF
:10255000219690FD069AE0E0FFE80D901599FECFD8
:1025600090FD009202080D9090FD009202080090EC
:10257000040807FEFCCF009001081090000802FC40
:1025800027CF109262081992E125E0818A9579F3AC
:1025900052F7F0918F6CFE2B069820920608089552
:1025A000E6990895DB2DC9E160EA74E4A0E0BBE49C
:1025B00087E12DD0DB2DC2E360EA70E5A0E0B7E54E
:1025C00087E125D0DB2DCBE460EA7CE5A0E0B3E633
:1025D00087E11DD0DB2DC4E660EA78E6A0E0BFE627
:1025E00087E115D0DB2DCDE760EA74E7A0E6B3E91B
:1025F0008FE70DD0E69B35D1DCE6C0E960EA78E9EB
:10260000A0EDBEE987E103D020926608089500900E
:102610000A0B061600900B0B07060090060B01FE36
:10262000B0F3BD01E2E8E0936608DE012196009078
:102630000A0B061600900B0B0706D0F400906408F6
:1026400007FEF5CF009061081090600802FC06C0FC
:1026500019928A9562F781E08C930AC000900A0B68
:10266000061600900B0B07060090060B01FEB0F358
:10267000209266080895E6990895E2E8E0936608D6
:10268000EAE4E093060864EF7EE9A4ECB4EAC0E073
:10269000D8E780E06DD064EF74EAA4ECBAEAC9E14F
:1026A000D8E781E065D064EF7AEAA4ECB0EBC2E34E
:1026B000D8E782E05DD064EF70EBA4ECB6EBCBE43E
:1026C000D8E783E055D064EF76EBA4ECBCEBC4E62E
:1026D000D8E784E04DD064EF7CEBA4ECB2ECCDE71E
:1026E000D8E785E045D064EF72ECA4ECB8ECC6E91D
:1026F000D8E786E03DD064EF78ECA4ECBEECCFEAFE
:10270000D8E787E035D064EF7EECA4ECB4EDC8ECFC
:10271000D8E788E02DD064EF74EDA4ECBAEDC1EEFB
:10272000D8E789E025D064EF7AEDA4ECB0EECAEFEB
:10273000D8E78AE01DD064EF70EEA4ECB6EEC3E1FA
:10274000D9E78BE015D064EF76EEA4ECBCEECCE2DA
:10275000D9E78CE00DD064EF7CEEA4ECB2EFC5E4D9
:10276000D9E78DE005D020926608209206080895EA
:102770006894909102688913E8942196E8E7F9E754
:102780008191919100900A0B061600900B0B0706A1
:10279000C8F32EF4069A8093020890930208BD01B4
:1027A00088E10090040805FEFCCF0090640807FE55
:1027B00004C00090600809928A95019016F4009276
:1027C0000208E03971F746F480E480930408009031
:1027D000040806FEFCCF069800900A0B061600902F
:1027E0000B0B070648F40090640807FEF5CF009035
:1027F000600809928A9581F700900A0B06160090EE
:102800000B0B07060090060B01FEB0F3089560EE77
:102810007AEF00900A0B061600900B0B070600904B
:10282000060B01FEB0F3249A2C982B9A60EC7CEFF7
:1028300000900A0B061600900B0B07060090060B83
:1028400001FEB0F3249A2C9A60EA7EEF00900A0B06
:10285000061600900B0B07060090060B01FEB0F366
:102860000895C8E7D9E7E1E0F8E724D047D022D0BF
:1028700045D020D043D01ED041D01CD03FD01AD05C
:102880003DD018D03BD0E4E0F8E7AEE08081918104
:102890000C01102819F47996AA95C1F780938D79C7
:1028A00090938E79C8E7D9E787E1B7D3F5E5EF27AD
:1028B000E883089590812082618121827281228241
:1028C000799680E090FD816060FD826070FD84609B
:1028D00091FD886061FD806171FD806292FD806480
:1028E00062FD8068899380E072FD816093FD826063
:1028F00063FD846073FD88608883089590812082E1
:1029000061812182728122827996888190FD806125
:1029100060FD806270FD806491FD8068899380E035
:1029200061FD816071FD826092FD846062FD88605E
:1029300072FD806193FD806263FD806473FD806839
:10294000899308950C9409180C9404180C940D188C
:102950009FD0E9EAFCE687E1F7DF87C099D0E9EA92
:10296000FCE68DE0F1DFECE0F8E683E0EDDF83E00C
:10297000E9DF6FC08DD0D32DCEE780E8E0E0F9E647
:10298000E3DF02C085D000C088D082D0F6018FE09E
:10299000DBDFD32DCEE7AFE7B0E080DCF32DEC2D0D
:1029A0003F96A193B193C193D19353C0E60188E1BF
:1029B000CDDF09F4089512CDE601A2E1B0E06EDCAE
:1029C000F601739671C0DD2DCEE7AFE7B0E066DCAF
:1029D000F6013F9669C0E091416AE211E150E0934F
:1029E000416AE21107CDE601E985F0913C6AEF23E7
:1029F000FA95F0933C6AE211FDCC86C0E601E985C8
:102A0000F091866CF211EF13F5CC08950895E091E2
:102A10008D6CE0FFEFCC0895E0918D6CE0FD04C07B
:102A200080913D6A8211E6CC08952CDCA991B99180
:102A30000D010128AE17BF07021051F425DCA99142
:102A4000B9910D010128AE17BF07021009F40895CE
:102A5000D1CCD32DCC2DA2E1B0E020DCF32DEC2D98
:102A60007396A193B193C193D193D32DCC2D87E1CC
:102A70006DDFE9930895DF93CF93C82F0E942C1840
:102A8000EF91FF91A193B193C193D193EF01089579
:102A9000CC2DCA9504C0C4E602C0CDE700C0D32D3A
:102AA000888181608993089501900A1297CC0190E2
:102AB0000B1294CC01900C1291CC01900D128ECC83
:102AC0000895E3E0E093276AE0E0F4E76F01E0E0D7
:102AD000F0E75F01F2E73F2E20928D6C20923E6A74
:102AE000E4E0ECBB08D11DD00FC0E7990895FD2D9F
:102AF000E2E0808180FD01D00895E091416AE21119
:102B0000EA95E093416A0895E0914801FFE0F4916D
:102B1000F0933C6A2092416A0895EFE0E093416AA5
:102B2000089520923D6A0895F32DE0E02082F32D70
:102B3000E9E12082E2E32082EBE42082E4E62082E5
:102B4000EDE720820895F0E7BF2EF2E73F2E06CC96
:102B5000E4E1F9E62192E033E9F708952092480193
:102B600020924901E1E0E09343010895E0E8F9E6AD
:102B70003FC2E4E8F9E63CC2E8E8F9E639C2E0E938
:102B8000F9E636C2ECE8F9E633C2E4E9F9E630C228
:102B9000E8E9F9E62DC2E0918F6C20928F6CE2118A
:102BA0001DCC0895E7990895DD2DC5E0E881F091E9
:102BB0008E6CF395E0938E6CEF1709F40895E29A0A
:102BC00013CCDD2DC0E0ED85E093276AE7999FC027
:102BD000EB85E77FF9E00C947B1802D0E7DE34C088
:102BE000E0910068F0910168C3E301D015C0DD2DCC
:102BF000CC2E888199819F3F49F4803051F08F3FDE
:102C000051F000903E6A801521F005C08E179F0795
:102C100011F40F900F900895CAE1DD2DCC2E80E0C5
:102C200090E0E0E0F9E609901190802901249029D4
:102C3000E830C9F7803011F09211DCCBE0E009F008
:102C4000E1E0E0938D6C0895E601EA8102C0E601BF
:102C5000E885E13120F4F0E0EF5FFE4E0994CACB45
:102C60002092866C2092826CECB3E260ECBB0895FB
:102C700001D037C0E0E0F9E60E945611EF010E9452
:102C80004211E993F9930E944411E993F9930E9448
:102C90001618E993F9930E941918E993F9930E9481
:102CA0004611E993F9930E944811E993F99382E060
:102CB000E2DE81E0E0DE83E0DEDE84E0DCDE87E091
:102CC000DADE85E0D8DE86E0D6DEE0E1F1E180E123
:102CD0003BDEE8E1F0E0E993F993E0910A68E993DB
:102CE000089509D081E08993E8E0F9E68CE02CDED4
:102CF000299229920895C9EADCE6E0E0F9E688E045
:102D000023CE0C94001989E6FCDF0C94FE118DE2B1
:102D1000F8DFE8E0F8E0EFD12CDF0C94FE117CDE68
:102D2000E6012A9682DE48DEF8DE82E5EADFF4CAB2
:102D30006EDE42DE83E7E5DF8BE08093B16CC2EBB1
:102D4000DCE68EE00E94091860913A6A70913B6A55
:102D50000E94D0176093B26C7093B36C6091236A39
:102D60007091246A6093B46C7093B56C6091256A1D
:102D70006093B66C9091356A9093AF6C9091376A7E
:102D80009093B06C90912F6A9093B16C9091316A4E
:102D90009093B26C9091336A9093B36C9091296A3E
:102DA0009093B46C90912B6A9093B56C90912D6A2E
:102DB0009093B66C9091396A9093B76CE0EBF2EB1C
:102DC000CF93C2E0C0930A06C1E0C0930D06C19143
:102DD000C0930006C191C0930206C191C09303063F
:102DE000C191C0930406C191C0930C06C191C093D8
:102DF0000806C191C0930106C191C093A000C19182
:102E0000C093896CC191C0938A6CC191C0930B0629
:102E1000C191C0930A06E0938B6CF0938C6CCF91B8
:102E200097DDECCA83E76DDFC9EADCE688E10E9442
:102E3000091880E18093A96C60913A6A70913B6AAD
:102E40000E94D0176093AA6C7093AB6C6091236A58
:102E50007091246A6093AC6C7093AD6C6091256A3C
:102E60006093AE6C9091356A9093AF6C9091376A95
:102E70009093B06C90912F6A9093B16C9091316A5D
:102E80009093B26C9091336A9093B36C9091296A4D
:102E90009093B46C90912B6A9093B56C90912D6A3D
:102EA0009093B66C9091396A9093B76CE0EBF2EB2B
:102EB000CF93C2E0C0930A06C1E0C0930D06C19152
:102EC000C0930006C191C0930206C191C09303064E
:102ED000C191C0930406C191C0930C06C191C093E7
:102EE0000806C191C0930106C191C093A000C19191
:102EF000C093896CC191C0938A6CC191C0930B0639
:102F0000C191C0930A06E0938B6CF0938C6CCF91C7
:102F10001FDD74CAE091896CF0918A6CEF2B0895E3
:102F2000CF93C091896CC21106C0C0918A6CC21146
:102F300002C0CF9103C0CF9188940895CF93C2E08F
:102F4000C0930A06C1E0C0930D06C191C09300066C
:102F5000C191C0930206C191C0930306C191C09371
:102F60000406C191C0930C06C191C0930806C1919B
:102F7000C0930106C191C093A000C191C093896C18
:102F8000C191C0938A6CC191C0930B06C191C0934B
:102F90000A06E0938B6CF0938C6CCF9108940895A3
:102FA0007695679576956795769567957695679505
:102FB0008091061190910711861B970B6091041167
:102FC000709105114FD0C695B795C695B795C69522
:102FD000B795C695B7957C2F6B2F0895ECE30698AF
:102FE000F894AFE1BAE6ADBFBEBFA4D0A895FECFBE
:102FF0008081918101968083918328F482819381DD
:103000000196828393830895019009928A95E1F74E
:10301000089529928A95E9F70895E0E0FFE809907C
:10302000E025E0818A95D9F7EE230895E0E0F0E00D
:103030000895E0E0F0E00895E2E6FCE60E947A11EF
:10304000C2E4DAE60E947C11E2E4FCE60E947A1116
:10305000C2E4DAE60C947C11E2E6FCE60E947E1102
:103060000C946E11799FE001689FD001699FB00DAB
:10307000C11DD21D789FB00DC11DD21D089580E4E1
:1030800004C080E202C080E100C0C083D18382839B
:10309000238224822582BDCF0DD007C00BD003C070
:1030A00009D0AA0FBB1FAA0FBB1FAA0FBB1FAA0FD5
:1030B000BB1F0895B381A081AB0FB181B21DDC911C
:1030C000CC93A481B581AD1BB209AC0FB21DA48312
:1030D000B583C281D381D395DC1708F0DD27D38374
:1030E00008950398179BFECF08951799FECF089572
:1030F000E2E0F2E000C0EF23F0950090266A0F2294
:10310000E02904C0E0E002C0EFEF00C0E093266ACF
:1031100000C0E091266A0C944C11EF23F0950090CA
:10312000276A0F22E02906C0E0E004C0E5E502C0FE
:10313000EFEF00C0E093276A00C0E091276A0C948B
:103140004A11B69904C0E5E5B59B0C94781107C007
:10315000442455240895AB980895AB9A0895E091BE
:103160004408E7FF0895E0914008E0930077089550
:103170008F93892F0AD08F9108C08F93892F05D004
:103180008F9100C002D08CE23BC001D003C08F936E
:10319000829501C08F938F70805D8A3308F0895FBC
:1031A0002FD08F9108958AE02BD08DE029C00F0198
:1031B000451451F0F0914408F5FF06C0F6E7E52DFF
:1031C000F081F09342085394F0010895451459F0AA
:1031D000F0914408F5FFFACFF6E7E52DF081F09382
:1031E00042085394F3CF0895C42DD6E701900020F0
:1031F00029F00882C395C511F9CFCA954C2ED8CFB6
:103200000F01F201FA95EF1719F0F6E78083439466
:10321000CFCF8F938E2FF201FA95EF1719F0F6E7C3
:10322000808343948F9108958991ACDF9A95E1F75B
:1032300008958991821188130895E2DFFACFC2E5DB
:10324000D2EBF7DF80910A68A0DFC2E6D2EBF1DFB4
:10325000BDCF0A0D1B5B34346D2E2E2E5B424C44C9
:103260002D005D1B5B6D0A0D0000C2E7D2EBE1DFB4
:10327000ADCF0A0D1B5B34336D2E2E2E5B555044A3
:103280005D1B5B6D0A0D0000CAE9D2EBD2DFC0E026
:10329000D8E690E1C9DF87DF99CF0A0D1B5B343296
:1032A0006D2E2E2E5B4150505D1B5B6D202D20003E
:1032B000110B000001420081876C00010142008176
:1032C0003A6A000101050081286A000101030081BA
:1032D0002A6A0001010100812C6A000101040080BA
:1032E0002E6A000101020080306A000101000080A6
:1032F000326A000101060080346A00010107008083
:10330000366A0001010B0081386A00010042008129
:1033100000000002FFFFFFFFFFFFFFFFFFFFFFFFB7
:1090000087C0FFCFFFC7FFCFFFC7FFCFFFC7FFCF8F
:10901000FFC7FFCFFFC7FFCFFFC7FFCFFFC7FFCF00
:10902000FFC7FFCFFFC7FFCFFFC7FFCFFFC7FFCFF0
:10903000FFC7FFCFFFC7FFCFFFC7FFCFFFC7FFCFE0
:10904000FFC7FFCFFFC7FFCFFFC7FFCFFFC7FFCFD0
:10905000FFC7FFCFFFC7FFCFFFC7FFCFFFC7FFCFC0
:10906000FFC7FFCFFFC7FFCFFFC7FFCFFFC7FFCFB0
:10907000FFC7FFCFFFC7FFCFFFC7FFCFFFC7FFCFA0
:10908000FFC7FFCFFFC7FFCFFFC7FFCFFFC7FFCF90
:10909000FFC7FFCFFFC7FFCFFFC7FFCFFFC7FFCF80
:1090A000FFC7FFCFFFC7FFCFFFC7FFCFFFC7FFCF70
:1090B000FFC7FFCFFFC7FFCFFFC7FFCFFFC7FFCF60
:1090C000FFC7FFCFFFC7FFCFFFC7FFCFFFC7FFCF50
:1090D000FFC7FFCFFFC7FFCFFFC7FFCFFFC7FFCF40
:1090E000FFC7FFCFFFC7FFCFFFC7FFCFFFC7FFCF30
:1090F000FFC7FFCFFFC7FFCFFFC7FFCFFFC7FFCF20
:1091000001001BC10100000089AC1E66986F6083DE
:10911000A895F8942224EFB3E0930A68EFE1FAE609
:10912000EDBFFEBFECE046D4E8EDF3E0E4BFF09322
:10913000600000C000C0E0916300E1FDFCCFE8EDFD
:10914000F1E0E4BFF09362002FD4E0E0FAE6C0E083
:10915000D6E121922197E9F7E8E0E0931604E09345
:109160001304E0931704E0931504E0931404E0E083
:10917000F8E02682A0E6B0E0A087B187A0E0A58352
:10918000A3E0A783069803980798059804980E987B
:109190000B98E8E020923304E0933504E093340424
:1091A000E0E6F8E02682A0E6B0E0A087B187A0E084
:1091B000A583A3E0A783A2ECA6832B982598239AE6
:1091C000249AE0E0FBE02082218224862586AFEF0E
:1091D000A683FED38ED3D6D3A895E8EDE4BFE5E011
:1091E000E09300016FD4AB98A39AB1C0F2C494C5C8
:1091F000E9C49DC5A0C4F1C40AC513C526C553C59D
:1092000075C5B9C0B8C0B7C0B6C0B5C00C94080029
:109210000C9409000C940A000C940B000C940C00A4
:109220000C940D000C940E000C940F000C94100084
:109230000C9411000C9412000C9413000C94140064
:109240000C9415000C9416000C9417000C94180044
:109250000C9419000C941A000C941B000C941C0024
:109260000C941D000C941E000C941F000C94200004
:109270000C9421000C9422000C9423000C942400E4
:109280000C9425000C9426000C9427000C942800C4
:109290000C9429000C942A000C942B000C942C00A4
:1092A0000C942D000C942E000C942F000C94300084
:1092B0000C9431000C9432000C9433000C94340064
:1092C0000C9435000C9436000C9437000C94380044
:1092D0000C9439000C943A000C943B000C943C0024
:1092E0000C943D00209200782092197820923278D8
:1092F00020924B782092647820927D782092007999
:10930000209219792092327920924B7920926479B7
:1093100020927D792092007A2092197A2092327AD6
:1093200020924B7A2092647A20927D7A2092007B60
:109330002092197B2092327B20924B7B2092647B7F
:1093400020927D7B0895EBEF33943E2208958BD1DC
:1093500016C0E29ABBD1E8D185E692D310C0E29A5A
:10936000B5D1E5D18EE78CD30AC0E29AAFD1E2D174
:1093700083E286D304C0AAD1D1D18EE200C0069880
:10938000209206081ED362D3EFE1FAE6EDBFFEBFDE
:1093900014D307D0BDD1D1D1D7D1E5D197D177D1D1
:1093A000EEC1E1999FDFE79BCEDFE2999ED1ECB35E
:1093B000E973ECBB00C0B7D2B2D22DD0CC24E60109
:1093C000D50187E165D0F0936F6C87E161D0F093B0
:1093D0006F6C87E15DD0F0936F6C87E159D0F093AB
:1093E0006F6C87E155D0F0936F6C8FE751D0FD2DF6
:1093F000E1E0E081E7FD06D0E69B07D0E8E0E093FE
:10940000A7040895E69AE79A0895E1E0DE26EBEFD7
:10941000B394BE2237C0A895209206082092000B74
:10942000E0E0F0E0E0930A0BF0930B0B20920C0BC2
:1094300020920D0BEFEFE093060BEAECE0930608A9
:1094400087E0C0E7DCE61599FECFE3E0E093000B90
:10945000039AE8E0E093A704E0E0FFE80090040846
:1094600007FEFCCF009001081090000802FC71CFAD
:109470001992E125E0818A958AF7E0936F6C20923A
:1094800006080895E0E7FCE6CCE0D8E687E019C2DC
:10949000EAECE09306089D91E6999E7F219690FD67
:1094A000069AE0E0FFE80D901599FECF90FD00923E
:1094B00002080D9090FD009202080090040807FE3B
:1094C000FCCF009001081090000802FC42CF1992D6
:1094D000E125E0818A9589F362F7F0916F6CFE2BAC
:1094E00006982092060808950C94660C0C94610C62
:1094F0000C946A0C9FD0E8E7FCE687E1F7DF87C0B1
:1095000099D0E8E7FCE68DE0F1DFECE0F8E683E0F7
:10951000EDDF83E0E9DF6FC08DD0D32DCEE780E8AB
:10952000E0E0F9E6E3DF02C085D000C088D082D059
:10953000F6018FE0DBDFD32DCEE7AFE7B0E072DEE0
:10954000F32DEC2D3F96A193B193C193D19353C0CA
:10955000E60188E1CDDF09F4089501CFE601A2E13B
:10956000B0E060DEF601739671C0DD2DCEE7AFE7A7
:10957000B0E058DEF6013F9669C0E0916C6CE211F4
:10958000E150E0936C6CE211F6CEE601E985F091D2
:10959000676CEF23FA95F093676CE211ECCE86C00E
:1095A000E601E985F091666CF211EF13E4CE0895BF
:1095B0000895E0916D6CE0FFDECE0895E0916D6C52
:1095C000E0FD04C08091686C8211D5CE08951EDE46
:1095D000A991B9910D010128AE17BF07021051F4EE
:1095E00017DEA991B9910D010128AE17BF0702102E
:1095F00009F40895C0CED32DCC2DA2E1B0E012DE47
:10960000F32DEC2D7396A193B193C193D193D32DE8
:10961000CC2D87E16DDFE9930895DF93CF93C82FB9
:109620000E94890CEF91FF91A193B193C193D193C3
:10963000EF010895CC2DCA9504C0C4E602C0CDE761
:1096400000C0D32D888181608993089501900A120A
:1096500086CE01900B1283CE01900C1280CE019029
:109660000D127DCE0895E3E0E093216AE0E0FCE78F
:109670006F01E0E0F8E75F01FAE73F2E20926D6CA2
:109680002092696CE4E0ECBBC5D01DD00FC0E79917
:109690000895FD2DE2E0808180FD01D00895E091E4
:1096A0006C6CE211EA95E0936C6C0895E0914801CE
:1096B000FFE0F491F093676C20926C6C0895EFE0FA
:1096C000E0936C6C08952092686C0895F32DE0E0AF
:1096D0002082F32DE9E12082E2E32082EBE4208284
:1096E000E4E62082EDE720820895F8E7BF2EFAE74E
:1096F0003F2EF8CDE4E1F9E62192E033E9F7089551
:109700002092480120924901E1E0E093430108954D
:10971000E0E8F9E6CAC0E4E8F9E6C7C0E8E8F9E637
:10972000C4C0E0E9F9E6C1C0ECE8F9E6BEC0E4E98E
:10973000F9E6BBC0E8E9F9E6B8C0E0916F6C2092A9
:109740006F6CE2110CCE0895E7990895DD2DC5E008
:10975000E881F0916E6CF395E0936E6CEF1709F46D
:109760000895E29A02CEDD2DC0E0EC85E093216AF7
:10977000E799CAC2EB85E77FFBE00C94BB0C1ED0D7
:10978000E7DE37C0E0910068F0910168C3E301D0E3
:1097900015C0DD2DCC2E888199819F3F49F4803002
:1097A00051F08F3F51F00090696C801521F005C099
:1097B0008E179F0711F40F900F900895CAE1DD2DC9
:1097C000CC2E80E090E0E0E0F9E60990119080294D
:1097D00001249029E830C9F7803011F09211CBCDE7
:1097E000E0E009F0E1E0E0936D6C0895E601EA81C4
:1097F00002C0E601E885E03120F4F0E0EA50F74FDE
:109800000994B9CD2092666C2092626CECB3E26050
:10981000ECBB089501D037C0E0E0F9E60E941A09D8
:10982000EF010E940609E993F9930E940809E99360
:10983000F9930E94730CE993F9930E94760CE993D3
:10984000F9930E940A09E993F9930E940C09E9939C
:10985000F99382E0E2DE81E0E0DE83E0DEDE84E0B8
:10986000DCDE87E0DADE85E0D8DE86E0D6DEE0E129
:10987000F1E180E13BDEE8E1F0E0E993F993E0918A
:109880000A68E993089509D081E08993E8E0F9E650
:109890008CE02CDE299229920895C8E7DCE6E0E00E
:1098A000F9E688E023CE0C94400D808191810196E9
:1098B0008083918328F482819381019682839383AC
:1098C0000895019009928A95E1F7089529928A9561
:1098D000E9F70895E0E0FFE80990E025E0818A9546
:1098E000D9F7EE230895E0E0F0E00895E0E0F0E03D
:1098F0000895E2E4FCE60E943E09C2E2DAE60E9434
:109900004009E2E2FCE60E943E09C2E2DAE60C947B
:109910004009E2E4FCE60E9442090C9432090398F3
:10992000179BFECF08951799FECF0895C0E0D8E6A3
:10993000A4E0B0E00EC0C0E0D8E6A8E0B0E014C0FB
:10994000C0E0D8E680E0C2DF00C0EFEFE093096836
:10995000089568DCF001A095B095C095D095A083DE
:10996000B183C283D38308955DDCF00180830895C1
:10997000E2E0F2E000C0EF23F0950090206A0F22B1
:10998000E02904C0E0E002C0EFEF00C0E093206AED
:1099900000C0E091206A0C941009EF23F09500902C
:1099A000216A0F22E02906C0E0E004C0E5E502C01C
:1099B000EFEF00C0E093216A00C0E091216A0C94AF
:1099C0000E09B69904C0E5E5B59B0C943C0907C0A7
:1099D000442455240895AB980895AB9A0895E091D6
:1099E0004408E7FF0895E0914008E093007E089561
:1099F0008F93892F0AD08F9108C08F93892F05D01C
:109A00008F9100C002D08CE23BC001D003C08F9385
:109A1000829501C08F938F70805D8A3308F0895FD3
:109A20002FD08F9108958AE02BD08DE029C00F01AF
:109A3000451451F0F0914408F5FF06C0FFE7E52D0D
:109A4000F081F09342085394F0010895451459F0C1
:109A5000F0914408F5FFFACFFFE7E52DF081F09390
:109A600042085394F3CF0895C42DDFE701900020FE
:109A700029F00882C395C511F9CFCA954C2ED8CFCD
:109A80000F01F201FA95EF1719F0FFE78083439475
:109A9000CFCF8F938E2FF201FA95EF1719F0FFE7D2
:109AA000808343948F91089580934208089589910B
:109AB000A9DF9A95E1F70895899182118813089595
:109AC000DFDFFACFC8EDDAE9F7DF80910A689DDFC2
:109AD000C8EEDAE9F1DFBACF0A0D1B5B34346D2E24
:109AE0002E2E5B424C442D005D1B5B6D0A0D000069
:109AF000C8EFDAE9E1DFAACF0A0D1B5B34336D2E24
:109B00002E2E5B5550445D1B5B6D0A0D0000C0E2BC
:109B1000DBE9D2DFC0E0D8E690E1C9DF84DF96CF91
:109B20000A0D1B5B34326D2E2E2E5B4150505D1B97
:109B30005B6D202D20003DDD11DDC1DD82E6B3DE51
:109B4000C0911A69D0911B69CF31C1F5D13CB1F5F3
:109B500003980698209206082B9828DF77DFE60105
:109B60008985809302688889998980930368909396
:109B700004688E859F858093006890930168ECE06F
:109B8000F8E6C5E1D8E687E09CDE8091026883951F
:109B900080931668C5E1D8E687E09CDEE8830E94E2
:109BA000960CE6018A8980FF0C940010E8EDE093A2
:109BB0003400E5E8E09301100C940010ECB3E2608F
:109BC000ECBBD9CBF6DCCADC7ADD81E76CDEA4DC49
:109BD000D6CB89E668DE0C94BF09F0DCE6012A9654
:109BE000F6DCBCDC6CDD83E75EDEE601EE85E0934F
:109BF000626CE985E093666C83DDC7E0E2E4FCE635
:109C000041DBC091626CE2E2FCE63CDBB8CBD6DC27
:109C1000E6012A96DCDCA2DC52DD85E744DEF2DDDB
:109C2000AECBC7DC9BDC4BDD82E73DDEF601A285D7
:109C3000B385D32DCEE78585813808F09CCB0D9078
:109C400009928A95E1F770DC9ACBAADCB7DC86DC56
:109C50008CDC35DD55DD87E726DEF60182859385D0
:109C6000CCDEF6018585CEDE0398069820920608A4
:109C70002B9840DDA0E8B0E0DD2DCEE7E2E4FCE685
:109C800003DBF601C285D385E2E2FCE6DBDAE6011E
:109C9000AD85B0E0C2E4DCE6E2E2FCE6F9DAECB382
:109CA000E260ECBB6CCB7CDC89DC58DC08DD86E652
:109CB000FADDF60182859385A0DEA4DD1BDD039825
:109CC0000698209206082B98E2E2FCE6E7DAF60115
:109CD000C285D385E2E2FCE6B5DAE6018D85DADA03
:109CE000DDDA9ADDECB3E260ECBB49CB61DCE60186
:109CF0002A966DDC33DCE3DC8DE6D5DDF60181856B
:109D00008093686C0C94BF098DE2CDDDE8E0F8E04B
:109D100032DE01DD0C94BF0951DCE6012A9657DCE6
:109D20001DDC2BDC80E7BFDDAEDDEADB28CB46DCCB
:109D3000E6012A964CDC12DCC2DC82E5B4DDB0CA56
:00000001FF
