@ba11 ; Affinity 
@bb01 ; MemBank 
@bc03 ; Command 
:020000020A00F2
:1000000088C0FFCF81E084C082E082C083E080C0EE
:1000100084E07EC085E07CC086E07AC087E078C05E
:1000200088E076C089E074C08AE072C08BE070C05E
:100030008CE06EC08DE06CC08EE06AC08FE068C05E
:1000400080E166C081E164C082E162C083E160C09A
:1000500084E15EC085E15CC086E15AC087E158C09A
:1000600088E156C089E154C08AE152C08BE150C09A
:100070008CE14EC08DE14CC08EE14AC08FE148C09A
:1000800080E246C081E244C082E242C083E240C0D6
:1000900084E23EC085E23CC086E23AC087E238C0D6
:1000A00088E236C089E234C08AE232C08BE230C0D6
:1000B0008CE22EC08DE22CC08EE22AC08FE228C0D6
:1000C00080E326C081E324C082E322C083E320C012
:1000D00084E31EC085E31CC086E31AC087E318C012
:1000E00088E316C089E314C08AE312C08BE310C012
:1000F0008CE30EC08DE30CC08EE30AC08FE308C012
:1001000001001FC10300000044444444BF5209F1F0
:10011000FFCFA895F8942224EFE1F9E6EDBFFEBFEA
:100120004F98479ADAD0A895E8EDE4BFE7E0E0936E
:100130000001F7D0F9D086D077D1ABD02ED0A0E097
:10014000B0E1C0E0D0EBE0E0F0E9099011900114DB
:1001500019F41197D1F71AC036D0E2E2FBE6C2E0FB
:10016000C2D1DBD1F9F744D0E2E4FBE6C1E0BBD178
:10017000C0E0D0EB98D1E2E2FBE6C2E0B4D1A0E06F
:10018000B0E1C2E4DBE6E2E2FBE6B3D148D0E2E470
:10019000FBE6C1E0A8D18FEFB0C1C2EAD1EA28D115
:1001A000F4C01B5B33336D2E2E2E636F6D70617246
:1001B000696E67204E455720776974682043555211
:1001C0001B5B6D0A0D00CEECD1EA12D1DEC01B5BC9
:1001D00033336D2E2E2E636865636B696E67204224
:1001E0004C44206261636B75701B5B6D0A0D0000EF
:1001F000C8EFD1EAFDD0C9C01B5B33336D2E2E2E64
:10020000696E7374616C6C696E67206E65772042ED
:100210004C4420636F64651B5B6D0A0D0000C6E2F1
:10022000D2EAE6D0B2C01B5B39326D2E2E2E636C43
:1002300065616E75701B5B6D0A0D000029928A95D1
:10024000E9F70895E2E4FBE60E946F12C2E2D9E604
:100250000E947112E2E2FBE60E946F12C2E2D9E64E
:100260000C947112E2E4FBE60E9473120C94631288
:100270000398179BFECF08951799FECF0895C0E00D
:10028000D8E6A4E0B0E00EC0C0E0D8E6A8E0B0E058
:1002900014C0C0E0D8E680E0D1DF00C0EFEFE0930B
:1002A00009680895F0D0F001A095B095C095D0955B
:1002B000A083B183C283D3830895E5D0F001808306
:1002C0000895E2E0F2E000C0EF23F095009020698D
:1002D0000F22E02904C0E0E002C0EFEF00C0E0938D
:1002E000206900C0E09120690C944112EF23F09541
:1002F000009021690F22E02906C0E0E004C0E5E596
:1003000002C0EFEF00C0E093216900C0E0912169D5
:100310000C943F12B69904C0E5E5B59B0C946D12A0
:1003200007C0442455240895AB980895AB9A0895C6
:10033000E0914408E7FF0895E0914008E093006CE5
:10034000089502D08CE23BC001D003C08F93829508
:1003500001C08F938F70805D8A3308F0895F2FD042
:100360008F9108958AE02BD08DE029C00F014514AC
:1003700051F0F0914408F5FF06C0FDE6E52DF0814F
:10038000F09342085394F0010895451459F0F09108
:100390004408F5FFFACFFDE6E52DF081F093420821
:1003A0005394F3CF0895C42DDDE60190002029F089
:1003B0000882C395C511F9CFCA954C2ED8CF0F012D
:1003C000F201FA95EF1719F0FDE680834394CFCF41
:1003D0008F938E2FF201FA95EF1719F0FDE68083C7
:1003E00043948F9108958991ACDF9A95E1F7089530
:1003F0008991821188130895E2DFFACFC0E1D4EA2F
:10040000F7DF80910A68A0DFC0E2D4EAF1DFBDCF58
:100410000A0D1B5B34346D2E2E2E5B424C442D0096
:100420005D1B5B6D0A0D0000C0E3D4EAE1DFADCFD8
:100430000A0D1B5B34336D2E2E2E5B5550445D1B15
:100440005B6D0A0D0000C8E5D4EAD2DFC0E0D8E653
:1004500090E1C9DF87DF99CF0A0D1B5B34326D2E27
:100460002E2E5B4150505D1B5B6D202D20000C94A7
:1004700008000C9409000C940A000C940B000C94D6
:100480000C000C940D000C940E000C940F000C94B6
:1004900010000C9411000C9412000C9413000C9496
:1004A00014000C9415000C9416000C9417000C9476
:1004B00018000C9419000C941A000C941B000C9456
:1004C0001C000C941D000C941E000C941F000C9436
:1004D00020000C9421000C9422000C9423000C9416
:1004E00024000C9425000C9426000C9427000C94F6
:1004F00028000C9429000C942A000C942B000C94D6
:100500002C000C942D000C942E000C942F000C94B5
:1005100030000C9431000C9432000C9433000C9495
:1005200034000C9435000C9436000C9437000C9475
:1005300038000C9439000C943A000C943B000C9455
:100540003C000C943D00FFFFFFFFFFFFFFFFFFFF9C
:1010000081C0FFCFFFC7FFCFFFC7FFCFFFC7FFCF15
:10101000FFC7FFCFFFC7FFCFFFC7FFCFFFC7FFCF80
:10102000FFC7FFCFFFC7FFCFFFC7FFCFFFC7FFCF70
:10103000FFC7FFCFFFC7FFCFFFC7FFCFFFC7FFCF60
:10104000FFC7FFCFFFC7FFCFFFC7FFCFFFC7FFCF50
:10105000FFC7FFCFFFC7FFCFFFC7FFCFFFC7FFCF40
:10106000FFC7FFCFFFC7FFCFFFC7FFCFFFC7FFCF30
:10107000FFC7FFCFFFC7FFCFFFC7FFCFFFC7FFCF20
:10108000FFC7FFCFFFC7FFCFFFC7FFCFFFC7FFCF10
:10109000FFC7FFCFFFC7FFCFFFC7FFCFFFC7FFCF00
:1010A000FFC7FFCFFFC7FFCFFFC7FFCFFFC7FFCFF0
:1010B000FFC7FFCFFFC7FFCFFFC7FFCFFFC7FFCFE0
:1010C000FFC7FFCFFFC7FFCFFFC7FFCFFFC7FFCFD0
:1010D000FFC7FFCFFFC7FFCFFFC7FFCFFFC7FFCFC0
:1010E000FFC7FFCFFFC7FFCFFFC7FFCFFFC7FFCFB0
:1010F000FFC7FFCFFFC7FFCFFFC7FFCFFFC7FFCFA0
:10110000F73AA6B4A895F8942224EFB3E0930A68BE
:10111000EFE1FAE6EDBFFEBFECE025D4E8EDF3E049
:10112000E4BFF093600000C000C0E0916300E1FD07
:10113000FCCFE8EDF1E0E4BFF09362000ED4E0E014
:10114000FAE6C0E0D6E121922197E9F7E8E0E093E2
:101150001604E0931304E0931704E0931504E0935E
:101160001404E0E0F8E02682A0E6B0E0A087B187B2
:10117000A0E0A583A3E0A7830698039807980598A5
:1011800004980E980B98E8E020923304E09335041D
:10119000E0933404E0E6F8E02682A0E6B0E0A08721
:1011A000B187A0E0A583A3E0A783A2ECA6832B9838
:1011B0002598239A249AE0E0FBE02082218224866D
:1011C0002586AFEFA683DDD36DD3B5D3A895E8ED23
:1011D000E4BFE5E0E09300014ED4AB98A39AB1C020
:1011E000D1C473C5C8C47CC57FC4D0C4E9C4F2C42B
:1011F00005C532C554C5B9C0B8C0B7C0B6C0B5C0C2
:101200000C9408000C9409000C940A000C940B0038
:101210000C940C000C940D000C940E000C940F0018
:101220000C9410000C9411000C9412000C941300F8
:101230000C9414000C9415000C9416000C941700D8
:101240000C9418000C9419000C941A000C941B00B8
:101250000C941C000C941D000C941E000C941F0098
:101260000C9420000C9421000C9422000C94230078
:101270000C9424000C9425000C9426000C94270058
:101280000C9428000C9429000C942A000C942B0038
:101290000C942C000C942D000C942E000C942F0018
:1012A0000C9430000C9431000C9432000C943300F8
:1012B0000C9434000C9435000C9436000C943700D8
:1012C0000C9438000C9439000C943A000C943B00B8
:1012D0000C943C000C943D002092007820921978E8
:1012E0002092327820924B782092647820927D78F8
:1012F00020920079209219792092327920924B79AC
:101300002092647920927D792092007A2092197A35
:101310002092327A20924B7A2092647A20927D7ABF
:101320002092007B2092197B2092327B20924B7B73
:101330002092647B20927D7B0895EBEF33943E22D4
:10134000089594D116C0E29AC2D1EFD185E671D347
:1013500010C0E29ABCD1ECD18EE76BD30AC0E29AFE
:10136000B6D1E9D183E265D304C0B1D1D8D18EE240
:1013700000C0069820920608FDD241D3EFE1FAE6BC
:10138000EDBFFEBFF3D207D0C4D1D8D1DED1ECD1AE
:101390009ED17ED1F5C1E1999FDFE79BCEDFE29937
:1013A000A5D1ECB3E973ECBB00C096D291D22DD09D
:1013B000CC24E601D50187E165D0F0936E6C87E11E
:1013C00061D0F0936E6C87E15DD0F0936E6C87E135
:1013D00059D0F0936E6C87E155D0F0936E6C8FE727
:1013E00051D0FD2DE1E0E081E7FD06D0E69B07D07E
:1013F000E8E0E093A7040895E69AE79A0895E1E00B
:10140000DE26EBEFB394BE2237C0A89520920608E3
:101410002092000BE0E0F0E0E0930A0BF0930B0B5E
:1014200020920C0B20920D0BEFEFE093060BEAECF1
:10143000E093060887E0CFE6DCE61599FECFE3E00F
:10144000E093000B039AE8E0E093A704E0E0FFE8F4
:101450000090040807FEFCCF0090010810900008DF
:1014600002FC71CF1992E125E0818A958AF7E09319
:101470006E6C209206080895EFE6FCE6CCE0D8E614
:1014800087E0F8C1EAECE09306089D91E6999E7F1B
:10149000219690FD069AE0E0FFE80D901599FECFA9
:1014A00090FD009202080D9090FD009202080090BD
:1014B000040807FEFCCF009001081090000802FC11
:1014C00042CF1992E125E0818A9589F362F7F09184
:1014D0006E6CFE2B06982092060808950C943F0C23
:1014E0000C943A0C0C94430CE601E885E03120F4AE
:1014F000F0E0E051F74F099438CF9FD0E7E7FCE6E2
:1015000087E1EEDF87C099D0E7E7FCE68DE0E8DF12
:10151000ECE0F8E683E0E4DF83E0E0DF6FC08DD04D
:10152000D32DCEE780E8E0E0F9E6DADF02C085D02F
:1015300000C088D082D0F6018FE0D2DFD32DCEE775
:10154000AFE7B0E069DEF32DEC2D3F96A193B193A8
:10155000C193D19353C0E60188E1C4DF09F4089533
:10156000F8CEE601A2E1B0E057DEF601739671C055
:10157000DD2DCEE7AFE7B0E04FDEF6013F9669C064
:10158000E0916B6CE211E150E0936B6CE211EDCEF7
:10159000E601E985F091676CEF23FA95F093676CAB
:1015A000E211E3CE84C0E601E985F091666CF211A8
:1015B000EF13DBCE08950895E0916C6CE0FFD5CE7B
:1015C0000895E0916C6CE0FD04C08091686C82111C
:1015D000CCCE089515DEA991B9910D010128AE1761
:1015E000BF07021051F40EDEA991B9910D01012837
:1015F000AE17BF07021009F40895B7CED32DCC2D36
:10160000A2E1B0E009DEF32DEC2D7396A193B19326
:10161000C193D193D32DCC2D87E164DFE993089555
:10162000DF93CF93C82F0E94620CEF91FF91A1939B
:10163000B193C193D193EF010895CC2DCA9504C005
:10164000C4E602C0CDE700C0D32D888181608993B4
:10165000089501900A127DCE01900B127ACE01906E
:101660000C1277CE01900D1274CE0895E3E0E09352
:10167000216AE0E0FCE76F01E0E0F8E75F01FAE7EC
:101680003F2E20926C6CE4E0ECBB9DD01DD00FC0CF
:10169000E7990895FD2DE2E0808180FD01D0089555
:1016A000E0916B6CE211EA95E0936B6C0895E09128
:1016B0004801FFE0F491F093676C20926B6C089501
:1016C000EFE0E0936B6C08952092686C0895F32D21
:1016D000E0E02082F32DE9E12082E2E32082EBE4E6
:1016E0002082E4E62082EDE720820895F8E7BF2E0D
:1016F000FAE73F2EF1CDE4E1F9E62192E033E9F794
:1017000008952092480120924901E1E0E0934301CD
:101710000895E0E8F9E6A2C0E4E8F9E69FC0E8E849
:10172000F9E69CC0E0E9F9E699C0ECE8F9E696C074
:10173000E4E9F9E693C0E8E9F9E690C0E0916E6C5F
:1017400020926E6CE21105CE0895E7990895DD2D83
:10175000C5E0E881F0916D6CF395E0936D6CEF1747
:1017600009F40895E29AFBCDDD2DC0E0EC85E0930D
:10177000216AE799A2C2EB85E77FFBE00C94940C09
:1017800002D0E9DEB1CECAE1DD2DCC2E80E090E0C2
:10179000E0E0F9E609901190802901249029E830D1
:1017A000C9F7803011F09211E0CDE0E009F0E1E0FE
:1017B000E0936C6C08952092666C2092626CECB39E
:1017C000E260ECBB089501D037C0E0E0F9E60E948A
:1017D0001409EF010E940009E993F9930E9402099C
:1017E000E993F9930E944C0CE993F9930E944F0CF2
:1017F000E993F9930E940409E993F9930E94060979
:10180000E993F99382E00CDF81E00ADF83E008DFEF
:1018100084E006DF87E004DF85E002DF86E000DFAA
:10182000E0E1F1E180E15CDEE8E1F0E0E993F993E9
:10183000E0910A68E993089509D081E08993E8E08E
:10184000F9E68CE04DDE299229920895C7E7DCE69F
:10185000E0E0F9E688E044CE0C94190D8081918196
:1018600001968083918328F48281938101968283FB
:1018700093830895019009928A95E1F7089529923A
:101880008A95E9F70895E0E0FFE80990E025E08116
:101890008A95D9F7EE230895E0E0F0E00895E0E0BE
:1018A000F0E00895E2E4FCE60E943809C2E2DAE6DC
:1018B0000E943A09E2E2FCE60E943809C2E2DAE656
:1018C0000C943A09E2E4FCE60E943C090C942C09D1
:1018D0000398179BFECF08951799FECF0895C0E097
:1018E000D8E6A4E0B0E00EC0C0E0D8E6A8E0B0E0E2
:1018F00014C0C0E0D8E680E0C2DF00C0EFEFE093A4
:101900000968089589DCF001A095B095C095D0953F
:10191000A083B183C283D38308957EDCF0018083EA
:101920000895E2E0F2E000C0EF23F0950090206A15
:101930000F22E02904C0E0E002C0EFEF00C0E09316
:10194000206A00C0E091206A0C940A09EF23F09508
:101950000090216A0F22E02906C0E0E004C0E5E51E
:1019600002C0EFEF00C0E093216A00C0E091216A5D
:101970000C940809B69904C0E5E5B59B0C943609AA
:1019800007C0442455240895AB980895AB9A089550
:10199000E0914408E7FF0895E0914008E093007E5D
:1019A00008958F93892F0AD08F9108C08F93892F24
:1019B00005D08F9100C002D08CE23BC001D003C0A3
:1019C0008F93829501C08F938F70805D8A3308F06A
:1019D000895F2FD08F9108958AE02BD08DE029C0A8
:1019E0000F01451451F0F0914408F5FF06C0FFE7E0
:1019F000E52DF081F09342085394F00108954514C9
:101A000059F0F0914408F5FFFACFFFE7E52DF0819A
:101A1000F09342085394F3CF0895C42DDFE701906B
:101A2000002029F00882C395C511F9CFCA954C2E24
:101A3000D8CF0F01F201FA95EF1719F0FFE7808375
:101A40004394CFCF8F938E2FF201FA95EF1719F0B1
:101A5000FFE7808343948F9108958093420808950F
:101A60008991A9DF9A95E1F70895899182118813E8
:101A70000895DFDFFACFCAE8DAE9F7DF80910A6874
:101A80009DDFCAE9DAE9F1DFBACF0A0D1B5B343416
:101A90006D2E2E2E5B424C442D005D1B5B6D0A0D9E
:101AA0000000CAEADAE9E1DFAACF0A0D1B5B343392
:101AB0006D2E2E2E5B5550445D1B5B6D0A0D000094
:101AC000C2EDDAE9D2DFC0E0D8E690E1C9DF84DF19
:101AD00096CF0A0D1B5B34326D2E2E2E5B4150507B
:101AE0005D1B5B6D202D200067DD3BDDE9DD82E6BF
:101AF000B3DEC0911A69D0911B69CF31C1F5D13CD9
:101B0000B1F503980698209206082B9828DF77DF16
:101B1000E6018985809302688889998980930368A2
:101B2000909304688E859F858093006890930168E8
:101B3000ECE0F8E6C5E1D8E687E09CDE809102683B
:101B4000839580931668C5E1D8E687E09CDEE8833C
:101B50000E946F0CE6018A8980FF0C940010E8ED6A
:101B6000E0933400E5E8E09301100C940010ECB32E
:101B7000E260ECBBFACB20DDF4DCA2DD81E76CDEB9
:101B8000CEDCF7CB89E668DE0C94B9091ADDE601F4
:101B90002A9620DDE6DC94DD83E75EDEE601EE8555
:101BA000E093626CE985E093666CABDDC7E0E2E44C
:101BB000FCE662DBC091626CE2E2FCE65DDBD9CB65
:101BC00000DDE6012A9606DDCCDC7ADD85E744DE21
:101BD000F2DDCFCBF1DCC5DC73DD82E73DDEF60163
:101BE000A285B385D32DCEE78585813808F0BDCB9E
:101BF0000D9009928A95E1F79ADCBBCBD4DCE1DC4D
:101C0000B0DCB6DC5DDD7DDD87E726DEF6018285B2
:101C10009385CCDEF6018585CEDE0398069820926A
:101C200006082B9868DDA0E8B0E0DD2DCEE7E2E401
:101C3000FCE624DBF601C285D385E2E2FCE6FCDAB1
:101C4000E601AD85B0E0C2E4DCE6E2E2FCE61ADBE8
:101C5000ECB3E260ECBB8DCBA6DCB3DC82DC30DD28
:101C600086E6FADDF60182859385A0DEA4DD43DDFC
:101C700003980698209206082B98E2E2FCE608DB1F
:101C8000F601C285D385E2E2FCE6D6DAE6018D856F
:101C9000FBDAFEDA9ADDECB3E260ECBB6ACB8BDCFC
:101CA000E6012A9697DC5DDC0BDD8DE6D5DDF601DD
:101CB00081858093686C0C94B9098DE2CDDDE8E0F4
:101CC000F8E032DE29DD0C94B9097BDCE6012A96C6
:101CD00081DC47DC55DC80E7BFDDAEDD14DC49CBC1
:101CE00070DCE6012A9676DC3CDCEADC82E5B4DDD9
:101CF000D1CAFFFFFFFFFFFFFFFFFFFFFFFFFFFF57
:00000001FF
; 
; *** EOF 
